{
  "_format": "hh-sol-artifact-1",
  "contractName": "DigitalDeed",
  "sourceName": "contracts/DigitalDeed.sol",
  "abi": [
    {
      "inputs": [],
      "stateMutability": "nonpayable",
      "type": "constructor"
    },
    {
      "inputs": [],
      "name": "ERC721EnumerableForbiddenBatchMint",
      "type": "error"
    },
    {
      "inputs": [
        {
          "internalType": "address",
          "name": "sender",
          "type": "address"
        },
        {
          "internalType": "uint256",
          "name": "tokenId",
          "type": "uint256"
        },
        {
          "internalType": "address",
          "name": "owner",
          "type": "address"
        }
      ],
      "name": "ERC721IncorrectOwner",
      "type": "error"
    },
    {
      "inputs": [
        {
          "internalType": "address",
          "name": "operator",
          "type": "address"
        },
        {
          "internalType": "uint256",
          "name": "tokenId",
          "type": "uint256"
        }
      ],
      "name": "ERC721InsufficientApproval",
      "type": "error"
    },
    {
      "inputs": [
        {
          "internalType": "address",
          "name": "approver",
          "type": "address"
        }
      ],
      "name": "ERC721InvalidApprover",
      "type": "error"
    },
    {
      "inputs": [
        {
          "internalType": "address",
          "name": "operator",
          "type": "address"
        }
      ],
      "name": "ERC721InvalidOperator",
      "type": "error"
    },
    {
      "inputs": [
        {
          "internalType": "address",
          "name": "owner",
          "type": "address"
        }
      ],
      "name": "ERC721InvalidOwner",
      "type": "error"
    },
    {
      "inputs": [
        {
          "internalType": "address",
          "name": "receiver",
          "type": "address"
        }
      ],
      "name": "ERC721InvalidReceiver",
      "type": "error"
    },
    {
      "inputs": [
        {
          "internalType": "address",
          "name": "sender",
          "type": "address"
        }
      ],
      "name": "ERC721InvalidSender",
      "type": "error"
    },
    {
      "inputs": [
        {
          "internalType": "uint256",
          "name": "tokenId",
          "type": "uint256"
        }
      ],
      "name": "ERC721NonexistentToken",
      "type": "error"
    },
    {
      "inputs": [
        {
          "internalType": "address",
          "name": "owner",
          "type": "address"
        },
        {
          "internalType": "uint256",
          "name": "index",
          "type": "uint256"
        }
      ],
      "name": "ERC721OutOfBoundsIndex",
      "type": "error"
    },
    {
      "inputs": [
        {
          "internalType": "address",
          "name": "owner",
          "type": "address"
        }
      ],
      "name": "OwnableInvalidOwner",
      "type": "error"
    },
    {
      "inputs": [
        {
          "internalType": "address",
          "name": "account",
          "type": "address"
        }
      ],
      "name": "OwnableUnauthorizedAccount",
      "type": "error"
    },
    {
      "inputs": [
        {
          "internalType": "string",
          "name": "serialNumber",
          "type": "string"
        }
      ],
      "name": "SerialNumberAlreadyUsed",
      "type": "error"
    },
    {
      "anonymous": false,
      "inputs": [
        {
          "indexed": true,
          "internalType": "address",
          "name": "owner",
          "type": "address"
        },
        {
          "indexed": true,
          "internalType": "address",
          "name": "approved",
          "type": "address"
        },
        {
          "indexed": true,
          "internalType": "uint256",
          "name": "tokenId",
          "type": "uint256"
        }
      ],
      "name": "Approval",
      "type": "event"
    },
    {
      "anonymous": false,
      "inputs": [
        {
          "indexed": true,
          "internalType": "address",
          "name": "owner",
          "type": "address"
        },
        {
          "indexed": true,
          "internalType": "address",
          "name": "operator",
          "type": "address"
        },
        {
          "indexed": false,
          "internalType": "bool",
          "name": "approved",
          "type": "bool"
        }
      ],
      "name": "ApprovalForAll",
      "type": "event"
    },
    {
      "anonymous": false,
      "inputs": [
        {
          "indexed": false,
          "internalType": "uint256",
          "name": "_fromTokenId",
          "type": "uint256"
        },
        {
          "indexed": false,
          "internalType": "uint256",
          "name": "_toTokenId",
          "type": "uint256"
        }
      ],
      "name": "BatchMetadataUpdate",
      "type": "event"
    },
    {
      "anonymous": false,
      "inputs": [
        {
          "indexed": false,
          "internalType": "uint256",
          "name": "_tokenId",
          "type": "uint256"
        }
      ],
      "name": "MetadataUpdate",
      "type": "event"
    },
    {
      "anonymous": false,
      "inputs": [
        {
          "indexed": true,
          "internalType": "address",
          "name": "previousOwner",
          "type": "address"
        },
        {
          "indexed": true,
          "internalType": "address",
          "name": "newOwner",
          "type": "address"
        }
      ],
      "name": "OwnershipTransferred",
      "type": "event"
    },
    {
      "anonymous": false,
      "inputs": [
        {
          "indexed": true,
          "internalType": "address",
          "name": "from",
          "type": "address"
        },
        {
          "indexed": true,
          "internalType": "address",
          "name": "to",
          "type": "address"
        },
        {
          "indexed": true,
          "internalType": "uint256",
          "name": "tokenId",
          "type": "uint256"
        }
      ],
      "name": "Transfer",
      "type": "event"
    },
    {
      "inputs": [
        {
          "internalType": "address",
          "name": "to",
          "type": "address"
        },
        {
          "internalType": "uint256",
          "name": "tokenId",
          "type": "uint256"
        }
      ],
      "name": "approve",
      "outputs": [],
      "stateMutability": "nonpayable",
      "type": "function"
    },
    {
      "inputs": [
        {
          "internalType": "address",
          "name": "owner",
          "type": "address"
        }
      ],
      "name": "balanceOf",
      "outputs": [
        {
          "internalType": "uint256",
          "name": "",
          "type": "uint256"
        }
      ],
      "stateMutability": "view",
      "type": "function"
    },
    {
      "inputs": [
        {
          "internalType": "uint256",
          "name": "tokenId",
          "type": "uint256"
        }
      ],
      "name": "getApproved",
      "outputs": [
        {
          "internalType": "address",
          "name": "",
          "type": "address"
        }
      ],
      "stateMutability": "view",
      "type": "function"
    },
    {
      "inputs": [
        {
          "internalType": "uint256",
          "name": "tokenId",
          "type": "uint256"
        }
      ],
      "name": "getName",
      "outputs": [
        {
          "internalType": "string",
          "name": "",
          "type": "string"
        }
      ],
      "stateMutability": "view",
      "type": "function"
    },
    {
      "inputs": [
        {
          "internalType": "uint256",
          "name": "tokenId",
          "type": "uint256"
        }
      ],
      "name": "getSerialNumber",
      "outputs": [
        {
          "internalType": "string",
          "name": "",
          "type": "string"
        }
      ],
      "stateMutability": "view",
      "type": "function"
    },
    {
      "inputs": [
        {
          "internalType": "address",
          "name": "owner",
          "type": "address"
        },
        {
          "internalType": "address",
          "name": "operator",
          "type": "address"
        }
      ],
      "name": "isApprovedForAll",
      "outputs": [
        {
          "internalType": "bool",
          "name": "",
          "type": "bool"
        }
      ],
      "stateMutability": "view",
      "type": "function"
    },
    {
      "inputs": [],
      "name": "name",
      "outputs": [
        {
          "internalType": "string",
          "name": "",
          "type": "string"
        }
      ],
      "stateMutability": "view",
      "type": "function"
    },
    {
      "inputs": [],
      "name": "owner",
      "outputs": [
        {
          "internalType": "address",
          "name": "",
          "type": "address"
        }
      ],
      "stateMutability": "view",
      "type": "function"
    },
    {
      "inputs": [
        {
          "internalType": "uint256",
          "name": "tokenId",
          "type": "uint256"
        }
      ],
      "name": "ownerOf",
      "outputs": [
        {
          "internalType": "address",
          "name": "",
          "type": "address"
        }
      ],
      "stateMutability": "view",
      "type": "function"
    },
    {
      "inputs": [],
      "name": "renounceOwnership",
      "outputs": [],
      "stateMutability": "nonpayable",
      "type": "function"
    },
    {
      "inputs": [
        {
          "internalType": "address",
          "name": "to",
          "type": "address"
        },
        {
          "internalType": "string",
          "name": "uri",
          "type": "string"
        },
        {
          "internalType": "string",
          "name": "name",
          "type": "string"
        },
        {
          "internalType": "string",
          "name": "serialNumber",
          "type": "string"
        }
      ],
      "name": "safeMint",
      "outputs": [],
      "stateMutability": "nonpayable",
      "type": "function"
    },
    {
      "inputs": [
        {
          "internalType": "address",
          "name": "from",
          "type": "address"
        },
        {
          "internalType": "address",
          "name": "to",
          "type": "address"
        },
        {
          "internalType": "uint256",
          "name": "tokenId",
          "type": "uint256"
        }
      ],
      "name": "safeTransferFrom",
      "outputs": [],
      "stateMutability": "nonpayable",
      "type": "function"
    },
    {
      "inputs": [
        {
          "internalType": "address",
          "name": "from",
          "type": "address"
        },
        {
          "internalType": "address",
          "name": "to",
          "type": "address"
        },
        {
          "internalType": "uint256",
          "name": "tokenId",
          "type": "uint256"
        },
        {
          "internalType": "bytes",
          "name": "data",
          "type": "bytes"
        }
      ],
      "name": "safeTransferFrom",
      "outputs": [],
      "stateMutability": "nonpayable",
      "type": "function"
    },
    {
      "inputs": [
        {
          "internalType": "address",
          "name": "operator",
          "type": "address"
        },
        {
          "internalType": "bool",
          "name": "approved",
          "type": "bool"
        }
      ],
      "name": "setApprovalForAll",
      "outputs": [],
      "stateMutability": "nonpayable",
      "type": "function"
    },
    {
      "inputs": [
        {
          "internalType": "bytes4",
          "name": "interfaceId",
          "type": "bytes4"
        }
      ],
      "name": "supportsInterface",
      "outputs": [
        {
          "internalType": "bool",
          "name": "",
          "type": "bool"
        }
      ],
      "stateMutability": "view",
      "type": "function"
    },
    {
      "inputs": [],
      "name": "symbol",
      "outputs": [
        {
          "internalType": "string",
          "name": "",
          "type": "string"
        }
      ],
      "stateMutability": "view",
      "type": "function"
    },
    {
      "inputs": [
        {
          "internalType": "uint256",
          "name": "index",
          "type": "uint256"
        }
      ],
      "name": "tokenByIndex",
      "outputs": [
        {
          "internalType": "uint256",
          "name": "",
          "type": "uint256"
        }
      ],
      "stateMutability": "view",
      "type": "function"
    },
    {
      "inputs": [
        {
          "internalType": "address",
          "name": "owner",
          "type": "address"
        },
        {
          "internalType": "uint256",
          "name": "index",
          "type": "uint256"
        }
      ],
      "name": "tokenOfOwnerByIndex",
      "outputs": [
        {
          "internalType": "uint256",
          "name": "",
          "type": "uint256"
        }
      ],
      "stateMutability": "view",
      "type": "function"
    },
    {
      "inputs": [
        {
          "internalType": "uint256",
          "name": "tokenId",
          "type": "uint256"
        }
      ],
      "name": "tokenURI",
      "outputs": [
        {
          "internalType": "string",
          "name": "",
          "type": "string"
        }
      ],
      "stateMutability": "view",
      "type": "function"
    },
    {
      "inputs": [],
      "name": "totalSupply",
      "outputs": [
        {
          "internalType": "uint256",
          "name": "",
          "type": "uint256"
        }
      ],
      "stateMutability": "view",
      "type": "function"
    },
    {
      "inputs": [
        {
          "internalType": "address",
          "name": "from",
          "type": "address"
        },
        {
          "internalType": "address",
          "name": "to",
          "type": "address"
        },
        {
          "internalType": "uint256",
          "name": "tokenId",
          "type": "uint256"
        }
      ],
      "name": "transferFrom",
      "outputs": [],
      "stateMutability": "nonpayable",
      "type": "function"
    },
    {
      "inputs": [
        {
          "internalType": "address",
          "name": "newOwner",
          "type": "address"
        }
      ],
      "name": "transferOwnership",
      "outputs": [],
      "stateMutability": "nonpayable",
      "type": "function"
    }
  ],
  "bytecode": "0x608060405234801562000010575f80fd5b50336040518060400160405280600b81526020017f4469676974616c446565640000000000000000000000000000000000000000008152506040518060400160405280600481526020017f4445454400000000000000000000000000000000000000000000000000000000815250815f90816200008e919062000455565b508060019081620000a0919062000455565b5050505f73ffffffffffffffffffffffffffffffffffffffff168173ffffffffffffffffffffffffffffffffffffffff160362000116575f6040517f1e4fbdf70000000000000000000000000000000000000000000000000000000081526004016200010d91906200057c565b60405180910390fd5b62000127816200012e60201b60201c565b5062000597565b5f600b5f9054906101000a900473ffffffffffffffffffffffffffffffffffffffff16905081600b5f6101000a81548173ffffffffffffffffffffffffffffffffffffffff021916908373ffffffffffffffffffffffffffffffffffffffff1602179055508173ffffffffffffffffffffffffffffffffffffffff168173ffffffffffffffffffffffffffffffffffffffff167f8be0079c531659141344cd1fd0a4f28419497f9722a3daafe3b4186f6b6457e060405160405180910390a35050565b5f81519050919050565b7f4e487b71000000000000000000000000000000000000000000000000000000005f52604160045260245ffd5b7f4e487b71000000000000000000000000000000000000000000000000000000005f52602260045260245ffd5b5f60028204905060018216806200026d57607f821691505b60208210810362000283576200028262000228565b5b50919050565b5f819050815f5260205f209050919050565b5f6020601f8301049050919050565b5f82821b905092915050565b5f60088302620002e77fffffffffffffffffffffffffffffffffffffffffffffffffffffffffffffffff82620002aa565b620002f38683620002aa565b95508019841693508086168417925050509392505050565b5f819050919050565b5f819050919050565b5f6200033d6200033762000331846200030b565b62000314565b6200030b565b9050919050565b5f819050919050565b62000358836200031d565b62000370620003678262000344565b848454620002b6565b825550505050565b5f90565b6200038662000378565b620003938184846200034d565b505050565b5b81811015620003ba57620003ae5f826200037c565b60018101905062000399565b5050565b601f8211156200040957620003d38162000289565b620003de846200029b565b81016020851015620003ee578190505b62000406620003fd856200029b565b83018262000398565b50505b505050565b5f82821c905092915050565b5f6200042b5f19846008026200040e565b1980831691505092915050565b5f6200044583836200041a565b9150826002028217905092915050565b6200046082620001f1565b67ffffffffffffffff8111156200047c576200047b620001fb565b5b62000488825462000255565b62000495828285620003be565b5f60209050601f831160018114620004cb575f8415620004b6578287015190505b620004c2858262000438565b86555062000531565b601f198416620004db8662000289565b5f5b828110156200050457848901518255600182019150602085019450602081019050620004dd565b8683101562000524578489015162000520601f8916826200041a565b8355505b6001600288020188555050505b505050505050565b5f73ffffffffffffffffffffffffffffffffffffffff82169050919050565b5f620005648262000539565b9050919050565b620005768162000558565b82525050565b5f602082019050620005915f8301846200056b565b92915050565b612fb580620005a55f395ff3fe608060405234801561000f575f80fd5b5060043610610140575f3560e01c80636b8ff574116100b65780639bd905f81161007a5780639bd905f814610386578063a22cb465146103b6578063b88d4fde146103d2578063c87b56dd146103ee578063e985e9c51461041e578063f2fde38b1461044e57610140565b80636b8ff574146102e057806370a0823114610310578063715018a6146103405780638da5cb5b1461034a57806395d89b411461036857610140565b806318160ddd1161010857806318160ddd146101fa57806323b872dd146102185780632f745c591461023457806342842e0e146102645780634f6ccce7146102805780636352211e146102b057610140565b806301ffc9a71461014457806303a80dfb1461017457806306fdde0314610190578063081812fc146101ae578063095ea7b3146101de575b5f80fd5b61015e6004803603810190610159919061236d565b61046a565b60405161016b91906123b2565b60405180910390f35b61018e60048036038101906101899190612561565b61047b565b005b6101986105a1565b6040516101a59190612693565b60405180910390f35b6101c860048036038101906101c391906126e6565b610630565b6040516101d59190612720565b60405180910390f35b6101f860048036038101906101f39190612739565b61064b565b005b610202610661565b60405161020f9190612786565b60405180910390f35b610232600480360381019061022d919061279f565b61066d565b005b61024e60048036038101906102499190612739565b61076c565b60405161025b9190612786565b60405180910390f35b61027e6004803603810190610279919061279f565b610810565b005b61029a600480360381019061029591906126e6565b61082f565b6040516102a79190612786565b60405180910390f35b6102ca60048036038101906102c591906126e6565b6108a1565b6040516102d79190612720565b60405180910390f35b6102fa60048036038101906102f591906126e6565b6108b2565b6040516103079190612693565b60405180910390f35b61032a600480360381019061032591906127ef565b61095d565b6040516103379190612786565b60405180910390f35b610348610a13565b005b610352610a26565b60405161035f9190612720565b60405180910390f35b610370610a4e565b60405161037d9190612693565b60405180910390f35b6103a0600480360381019061039b91906126e6565b610ade565b6040516103ad9190612693565b60405180910390f35b6103d060048036038101906103cb9190612844565b610b89565b005b6103ec60048036038101906103e79190612920565b610b9f565b005b610408600480360381019061040391906126e6565b610bc4565b6040516104159190612693565b60405180910390f35b610438600480360381019061043391906129a0565b610bd6565b60405161044591906123b2565b60405180910390f35b610468600480360381019061046391906127ef565b610c64565b005b5f61047482610ce8565b9050919050565b5f8160405160200161048d9190612a18565b604051602081830303815290604052805190602001209050600d5f8281526020019081526020015f205f9054906101000a900460ff161561050557816040517fa94086960000000000000000000000000000000000000000000000000000000081526004016104fc9190612693565b60405180910390fd5b5f600c5f81548092919061051890612a5b565b9190505590506001600d5f8481526020019081526020015f205f6101000a81548160ff02191690831515021790555082600e5f8381526020019081526020015f2090816105659190612c9c565b5083600f5f8381526020019081526020015f2090816105849190612c9c565b5061058f8682610d48565b6105998186610d65565b505050505050565b60605f80546105af90612acf565b80601f01602080910402602001604051908101604052809291908181526020018280546105db90612acf565b80156106265780601f106105fd57610100808354040283529160200191610626565b820191905f5260205f20905b81548152906001019060200180831161060957829003601f168201915b5050505050905090565b5f61063a82610dbf565b5061064482610e45565b9050919050565b61065d8282610658610e7e565b610e85565b5050565b5f600880549050905090565b5f73ffffffffffffffffffffffffffffffffffffffff168273ffffffffffffffffffffffffffffffffffffffff16036106dd575f6040517f64a0ae920000000000000000000000000000000000000000000000000000000081526004016106d49190612720565b60405180910390fd5b5f6106f083836106eb610e7e565b610e97565b90508373ffffffffffffffffffffffffffffffffffffffff168173ffffffffffffffffffffffffffffffffffffffff1614610766578382826040517f64283d7b00000000000000000000000000000000000000000000000000000000815260040161075d93929190612d6b565b60405180910390fd5b50505050565b5f6107768361095d565b82106107bb5782826040517fa57d13dc0000000000000000000000000000000000000000000000000000000081526004016107b2929190612da0565b60405180910390fd5b60065f8473ffffffffffffffffffffffffffffffffffffffff1673ffffffffffffffffffffffffffffffffffffffff1681526020019081526020015f205f8381526020019081526020015f2054905092915050565b61082a83838360405180602001604052805f815250610b9f565b505050565b5f610838610661565b821061087d575f826040517fa57d13dc000000000000000000000000000000000000000000000000000000008152600401610874929190612da0565b60405180910390fd5b6008828154811061089157610890612dc7565b5b905f5260205f2001549050919050565b5f6108ab82610dbf565b9050919050565b60606108bd82610dbf565b50600f5f8381526020019081526020015f2080546108da90612acf565b80601f016020809104026020016040519081016040528092919081815260200182805461090690612acf565b80156109515780601f1061092857610100808354040283529160200191610951565b820191905f5260205f20905b81548152906001019060200180831161093457829003601f168201915b50505050509050919050565b5f8073ffffffffffffffffffffffffffffffffffffffff168273ffffffffffffffffffffffffffffffffffffffff16036109ce575f6040517f89c62b640000000000000000000000000000000000000000000000000000000081526004016109c59190612720565b60405180910390fd5b60035f8373ffffffffffffffffffffffffffffffffffffffff1673ffffffffffffffffffffffffffffffffffffffff1681526020019081526020015f20549050919050565b610a1b610eac565b610a245f610f33565b565b5f600b5f9054906101000a900473ffffffffffffffffffffffffffffffffffffffff16905090565b606060018054610a5d90612acf565b80601f0160208091040260200160405190810160405280929190818152602001828054610a8990612acf565b8015610ad45780601f10610aab57610100808354040283529160200191610ad4565b820191905f5260205f20905b815481529060010190602001808311610ab757829003601f168201915b5050505050905090565b6060610ae982610dbf565b50600e5f8381526020019081526020015f208054610b0690612acf565b80601f0160208091040260200160405190810160405280929190818152602001828054610b3290612acf565b8015610b7d5780601f10610b5457610100808354040283529160200191610b7d565b820191905f5260205f20905b815481529060010190602001808311610b6057829003601f168201915b50505050509050919050565b610b9b610b94610e7e565b8383610ff6565b5050565b610baa84848461066d565b610bbe610bb5610e7e565b858585856111cf565b50505050565b6060610bcf8261137b565b9050919050565b5f60055f8473ffffffffffffffffffffffffffffffffffffffff1673ffffffffffffffffffffffffffffffffffffffff1681526020019081526020015f205f8373ffffffffffffffffffffffffffffffffffffffff1673ffffffffffffffffffffffffffffffffffffffff1681526020019081526020015f205f9054906101000a900460ff16905092915050565b610c6c610eac565b5f73ffffffffffffffffffffffffffffffffffffffff168173ffffffffffffffffffffffffffffffffffffffff1603610cdc575f6040517f1e4fbdf7000000000000000000000000000000000000000000000000000000008152600401610cd39190612720565b60405180910390fd5b610ce581610f33565b50565b5f634906490660e01b7bffffffffffffffffffffffffffffffffffffffffffffffffffffffff1916827bffffffffffffffffffffffffffffffffffffffffffffffffffffffff19161480610d415750610d40826113f7565b5b9050919050565b610d61828260405180602001604052805f815250611470565b5050565b80600a5f8481526020019081526020015f209081610d839190612c9c565b507ff8e1a15aba9398e019f0b49df1a4fde98ee17ae345cb5f6b5e2c27f5033e8ce782604051610db39190612786565b60405180910390a15050565b5f80610dca83611493565b90505f73ffffffffffffffffffffffffffffffffffffffff168173ffffffffffffffffffffffffffffffffffffffff1603610e3c57826040517f7e273289000000000000000000000000000000000000000000000000000000008152600401610e339190612786565b60405180910390fd5b80915050919050565b5f60045f8381526020019081526020015f205f9054906101000a900473ffffffffffffffffffffffffffffffffffffffff169050919050565b5f33905090565b610e9283838360016114cc565b505050565b5f610ea384848461168b565b90509392505050565b610eb4610e7e565b73ffffffffffffffffffffffffffffffffffffffff16610ed2610a26565b73ffffffffffffffffffffffffffffffffffffffff1614610f3157610ef5610e7e565b6040517f118cdaa7000000000000000000000000000000000000000000000000000000008152600401610f289190612720565b60405180910390fd5b565b5f600b5f9054906101000a900473ffffffffffffffffffffffffffffffffffffffff16905081600b5f6101000a81548173ffffffffffffffffffffffffffffffffffffffff021916908373ffffffffffffffffffffffffffffffffffffffff1602179055508173ffffffffffffffffffffffffffffffffffffffff168173ffffffffffffffffffffffffffffffffffffffff167f8be0079c531659141344cd1fd0a4f28419497f9722a3daafe3b4186f6b6457e060405160405180910390a35050565b5f73ffffffffffffffffffffffffffffffffffffffff168373ffffffffffffffffffffffffffffffffffffffff1603611066575f6040517fa9fbf51f00000000000000000000000000000000000000000000000000000000815260040161105d9190612720565b60405180910390fd5b5f73ffffffffffffffffffffffffffffffffffffffff168273ffffffffffffffffffffffffffffffffffffffff16036110d657816040517f5b08ba180000000000000000000000000000000000000000000000000000000081526004016110cd9190612720565b60405180910390fd5b8060055f8573ffffffffffffffffffffffffffffffffffffffff1673ffffffffffffffffffffffffffffffffffffffff1681526020019081526020015f205f8473ffffffffffffffffffffffffffffffffffffffff1673ffffffffffffffffffffffffffffffffffffffff1681526020019081526020015f205f6101000a81548160ff0219169083151502179055508173ffffffffffffffffffffffffffffffffffffffff168373ffffffffffffffffffffffffffffffffffffffff167f17307eab39ab6107e8899845ad3d59bd9653f200f220920489ca2b5937696c31836040516111c291906123b2565b60405180910390a3505050565b5f8373ffffffffffffffffffffffffffffffffffffffff163b1115611374578273ffffffffffffffffffffffffffffffffffffffff1663150b7a02868685856040518563ffffffff1660e01b815260040161122d9493929190612e46565b6020604051808303815f875af192505050801561126857506040513d601f19601f820116820180604052508101906112659190612ea4565b60015b6112e9573d805f8114611296576040519150601f19603f3d011682016040523d82523d5f602084013e61129b565b606091505b505f8151036112e157836040517f64a0ae920000000000000000000000000000000000000000000000000000000081526004016112d89190612720565b60405180910390fd5b805160208201fd5b63150b7a0260e01b7bffffffffffffffffffffffffffffffffffffffffffffffffffffffff1916817bffffffffffffffffffffffffffffffffffffffffffffffffffffffff19161461137257836040517f64a0ae920000000000000000000000000000000000000000000000000000000081526004016113699190612720565b60405180910390fd5b505b5050505050565b606061138682610dbf565b505f6113906117a5565b90505f61139c846117bb565b90505f8251036113b05780925050506113f2565b5f815111156113e45781816040516020016113cc929190612ecf565b604051602081830303815290604052925050506113f2565b6113ed8461185c565b925050505b919050565b5f7f780e9d63000000000000000000000000000000000000000000000000000000007bffffffffffffffffffffffffffffffffffffffffffffffffffffffff1916827bffffffffffffffffffffffffffffffffffffffffffffffffffffffff191614806114695750611468826118c2565b5b9050919050565b61147a83836119a3565b61148e611485610e7e565b5f8585856111cf565b505050565b5f60025f8381526020019081526020015f205f9054906101000a900473ffffffffffffffffffffffffffffffffffffffff169050919050565b808061150457505f73ffffffffffffffffffffffffffffffffffffffff168273ffffffffffffffffffffffffffffffffffffffff1614155b15611636575f61151384610dbf565b90505f73ffffffffffffffffffffffffffffffffffffffff168373ffffffffffffffffffffffffffffffffffffffff161415801561157d57508273ffffffffffffffffffffffffffffffffffffffff168173ffffffffffffffffffffffffffffffffffffffff1614155b8015611590575061158e8184610bd6565b155b156115d257826040517fa9fbf51f0000000000000000000000000000000000000000000000000000000081526004016115c99190612720565b60405180910390fd5b811561163457838573ffffffffffffffffffffffffffffffffffffffff168273ffffffffffffffffffffffffffffffffffffffff167f8c5be1e5ebec7d5bd14f71427d1e84f3dd0314c0f7b2291e5b200ac8c7c3b92560405160405180910390a45b505b8360045f8581526020019081526020015f205f6101000a81548173ffffffffffffffffffffffffffffffffffffffff021916908373ffffffffffffffffffffffffffffffffffffffff16021790555050505050565b5f80611698858585611a96565b90505f73ffffffffffffffffffffffffffffffffffffffff168173ffffffffffffffffffffffffffffffffffffffff16036116db576116d684611ca1565b61171a565b8473ffffffffffffffffffffffffffffffffffffffff168173ffffffffffffffffffffffffffffffffffffffff1614611719576117188185611ce5565b5b5b5f73ffffffffffffffffffffffffffffffffffffffff168573ffffffffffffffffffffffffffffffffffffffff160361175b5761175684611dbc565b61179a565b8473ffffffffffffffffffffffffffffffffffffffff168173ffffffffffffffffffffffffffffffffffffffff1614611799576117988585611e7c565b5b5b809150509392505050565b606060405180602001604052805f815250905090565b6060600a5f8381526020019081526020015f2080546117d990612acf565b80601f016020809104026020016040519081016040528092919081815260200182805461180590612acf565b80156118505780601f1061182757610100808354040283529160200191611850565b820191905f5260205f20905b81548152906001019060200180831161183357829003601f168201915b50505050509050919050565b606061186782610dbf565b505f6118716117a5565b90505f81511161188f5760405180602001604052805f8152506118ba565b8061189984611f00565b6040516020016118aa929190612ecf565b6040516020818303038152906040525b915050919050565b5f7f80ac58cd000000000000000000000000000000000000000000000000000000007bffffffffffffffffffffffffffffffffffffffffffffffffffffffff1916827bffffffffffffffffffffffffffffffffffffffffffffffffffffffff1916148061198c57507f5b5e139f000000000000000000000000000000000000000000000000000000007bffffffffffffffffffffffffffffffffffffffffffffffffffffffff1916827bffffffffffffffffffffffffffffffffffffffffffffffffffffffff1916145b8061199c575061199b82611fca565b5b9050919050565b5f73ffffffffffffffffffffffffffffffffffffffff168273ffffffffffffffffffffffffffffffffffffffff1603611a13575f6040517f64a0ae92000000000000000000000000000000000000000000000000000000008152600401611a0a9190612720565b60405180910390fd5b5f611a1f83835f610e97565b90505f73ffffffffffffffffffffffffffffffffffffffff168173ffffffffffffffffffffffffffffffffffffffff1614611a91575f6040517f73c6ac6e000000000000000000000000000000000000000000000000000000008152600401611a889190612720565b60405180910390fd5b505050565b5f80611aa184611493565b90505f73ffffffffffffffffffffffffffffffffffffffff168373ffffffffffffffffffffffffffffffffffffffff1614611ae257611ae1818486612033565b5b5f73ffffffffffffffffffffffffffffffffffffffff168173ffffffffffffffffffffffffffffffffffffffff1614611b6d57611b215f855f806114cc565b600160035f8373ffffffffffffffffffffffffffffffffffffffff1673ffffffffffffffffffffffffffffffffffffffff1681526020019081526020015f205f82825403925050819055505b5f73ffffffffffffffffffffffffffffffffffffffff168573ffffffffffffffffffffffffffffffffffffffff1614611bec57600160035f8773ffffffffffffffffffffffffffffffffffffffff1673ffffffffffffffffffffffffffffffffffffffff1681526020019081526020015f205f82825401925050819055505b8460025f8681526020019081526020015f205f6101000a81548173ffffffffffffffffffffffffffffffffffffffff021916908373ffffffffffffffffffffffffffffffffffffffff160217905550838573ffffffffffffffffffffffffffffffffffffffff168273ffffffffffffffffffffffffffffffffffffffff167fddf252ad1be2c89b69c2b068fc378daa952ba7f163c4a11628f55a4df523b3ef60405160405180910390a4809150509392505050565b60088054905060095f8381526020019081526020015f2081905550600881908060018154018082558091505060019003905f5260205f20015f909190919091505550565b5f611cef8361095d565b90505f60075f8481526020019081526020015f205490505f60065f8673ffffffffffffffffffffffffffffffffffffffff1673ffffffffffffffffffffffffffffffffffffffff1681526020019081526020015f209050828214611d8e575f815f8581526020019081526020015f2054905080825f8581526020019081526020015f20819055508260075f8381526020019081526020015f2081905550505b60075f8581526020019081526020015f205f9055805f8481526020019081526020015f205f90555050505050565b5f6001600880549050611dcf9190612ef2565b90505f60095f8481526020019081526020015f205490505f60088381548110611dfb57611dfa612dc7565b5b905f5260205f20015490508060088381548110611e1b57611e1a612dc7565b5b905f5260205f2001819055508160095f8381526020019081526020015f208190555060095f8581526020019081526020015f205f90556008805480611e6357611e62612f25565b5b600190038181905f5260205f20015f9055905550505050565b5f6001611e888461095d565b611e929190612ef2565b90508160065f8573ffffffffffffffffffffffffffffffffffffffff1673ffffffffffffffffffffffffffffffffffffffff1681526020019081526020015f205f8381526020019081526020015f20819055508060075f8481526020019081526020015f2081905550505050565b60605f6001611f0e846120f6565b0190505f8167ffffffffffffffff811115611f2c57611f2b61243d565b5b6040519080825280601f01601f191660200182016040528015611f5e5781602001600182028036833780820191505090505b5090505f82602083010190505b600115611fbf578080600190039150507f3031323334353637383961626364656600000000000000000000000000000000600a86061a8153600a8581611fb457611fb3612f52565b5b0494505f8503611f6b575b819350505050919050565b5f7f01ffc9a7000000000000000000000000000000000000000000000000000000007bffffffffffffffffffffffffffffffffffffffffffffffffffffffff1916827bffffffffffffffffffffffffffffffffffffffffffffffffffffffff1916149050919050565b61203e838383612247565b6120f1575f73ffffffffffffffffffffffffffffffffffffffff168373ffffffffffffffffffffffffffffffffffffffff16036120b257806040517f7e2732890000000000000000000000000000000000000000000000000000000081526004016120a99190612786565b60405180910390fd5b81816040517f177e802f0000000000000000000000000000000000000000000000000000000081526004016120e8929190612da0565b60405180910390fd5b505050565b5f805f90507a184f03e93ff9f4daa797ed6e38ed64bf6a1f0100000000000000008310612152577a184f03e93ff9f4daa797ed6e38ed64bf6a1f010000000000000000838161214857612147612f52565b5b0492506040810190505b6d04ee2d6d415b85acef8100000000831061218f576d04ee2d6d415b85acef8100000000838161218557612184612f52565b5b0492506020810190505b662386f26fc1000083106121be57662386f26fc1000083816121b4576121b3612f52565b5b0492506010810190505b6305f5e10083106121e7576305f5e10083816121dd576121dc612f52565b5b0492506008810190505b612710831061220c57612710838161220257612201612f52565b5b0492506004810190505b6064831061222f576064838161222557612224612f52565b5b0492506002810190505b600a831061223e576001810190505b80915050919050565b5f8073ffffffffffffffffffffffffffffffffffffffff168373ffffffffffffffffffffffffffffffffffffffff16141580156122fe57508273ffffffffffffffffffffffffffffffffffffffff168473ffffffffffffffffffffffffffffffffffffffff1614806122bf57506122be8484610bd6565b5b806122fd57508273ffffffffffffffffffffffffffffffffffffffff166122e583610e45565b73ffffffffffffffffffffffffffffffffffffffff16145b5b90509392505050565b5f604051905090565b5f80fd5b5f80fd5b5f7fffffffff0000000000000000000000000000000000000000000000000000000082169050919050565b61234c81612318565b8114612356575f80fd5b50565b5f8135905061236781612343565b92915050565b5f6020828403121561238257612381612310565b5b5f61238f84828501612359565b91505092915050565b5f8115159050919050565b6123ac81612398565b82525050565b5f6020820190506123c55f8301846123a3565b92915050565b5f73ffffffffffffffffffffffffffffffffffffffff82169050919050565b5f6123f4826123cb565b9050919050565b612404816123ea565b811461240e575f80fd5b50565b5f8135905061241f816123fb565b92915050565b5f80fd5b5f80fd5b5f601f19601f8301169050919050565b7f4e487b71000000000000000000000000000000000000000000000000000000005f52604160045260245ffd5b6124738261242d565b810181811067ffffffffffffffff821117156124925761249161243d565b5b80604052505050565b5f6124a4612307565b90506124b0828261246a565b919050565b5f67ffffffffffffffff8211156124cf576124ce61243d565b5b6124d88261242d565b9050602081019050919050565b828183375f83830152505050565b5f612505612500846124b5565b61249b565b90508281526020810184848401111561252157612520612429565b5b61252c8482856124e5565b509392505050565b5f82601f83011261254857612547612425565b5b81356125588482602086016124f3565b91505092915050565b5f805f806080858703121561257957612578612310565b5b5f61258687828801612411565b945050602085013567ffffffffffffffff8111156125a7576125a6612314565b5b6125b387828801612534565b935050604085013567ffffffffffffffff8111156125d4576125d3612314565b5b6125e087828801612534565b925050606085013567ffffffffffffffff81111561260157612600612314565b5b61260d87828801612534565b91505092959194509250565b5f81519050919050565b5f82825260208201905092915050565b5f5b83811015612650578082015181840152602081019050612635565b5f8484015250505050565b5f61266582612619565b61266f8185612623565b935061267f818560208601612633565b6126888161242d565b840191505092915050565b5f6020820190508181035f8301526126ab818461265b565b905092915050565b5f819050919050565b6126c5816126b3565b81146126cf575f80fd5b50565b5f813590506126e0816126bc565b92915050565b5f602082840312156126fb576126fa612310565b5b5f612708848285016126d2565b91505092915050565b61271a816123ea565b82525050565b5f6020820190506127335f830184612711565b92915050565b5f806040838503121561274f5761274e612310565b5b5f61275c85828601612411565b925050602061276d858286016126d2565b9150509250929050565b612780816126b3565b82525050565b5f6020820190506127995f830184612777565b92915050565b5f805f606084860312156127b6576127b5612310565b5b5f6127c386828701612411565b93505060206127d486828701612411565b92505060406127e5868287016126d2565b9150509250925092565b5f6020828403121561280457612803612310565b5b5f61281184828501612411565b91505092915050565b61282381612398565b811461282d575f80fd5b50565b5f8135905061283e8161281a565b92915050565b5f806040838503121561285a57612859612310565b5b5f61286785828601612411565b925050602061287885828601612830565b9150509250929050565b5f67ffffffffffffffff82111561289c5761289b61243d565b5b6128a58261242d565b9050602081019050919050565b5f6128c46128bf84612882565b61249b565b9050828152602081018484840111156128e0576128df612429565b5b6128eb8482856124e5565b509392505050565b5f82601f83011261290757612906612425565b5b81356129178482602086016128b2565b91505092915050565b5f805f806080858703121561293857612937612310565b5b5f61294587828801612411565b945050602061295687828801612411565b9350506040612967878288016126d2565b925050606085013567ffffffffffffffff81111561298857612987612314565b5b612994878288016128f3565b91505092959194509250565b5f80604083850312156129b6576129b5612310565b5b5f6129c385828601612411565b92505060206129d485828601612411565b9150509250929050565b5f81905092915050565b5f6129f282612619565b6129fc81856129de565b9350612a0c818560208601612633565b80840191505092915050565b5f612a2382846129e8565b915081905092915050565b7f4e487b71000000000000000000000000000000000000000000000000000000005f52601160045260245ffd5b5f612a65826126b3565b91507fffffffffffffffffffffffffffffffffffffffffffffffffffffffffffffffff8203612a9757612a96612a2e565b5b600182019050919050565b7f4e487b71000000000000000000000000000000000000000000000000000000005f52602260045260245ffd5b5f6002820490506001821680612ae657607f821691505b602082108103612af957612af8612aa2565b5b50919050565b5f819050815f5260205f209050919050565b5f6020601f8301049050919050565b5f82821b905092915050565b5f60088302612b5b7fffffffffffffffffffffffffffffffffffffffffffffffffffffffffffffffff82612b20565b612b658683612b20565b95508019841693508086168417925050509392505050565b5f819050919050565b5f612ba0612b9b612b96846126b3565b612b7d565b6126b3565b9050919050565b5f819050919050565b612bb983612b86565b612bcd612bc582612ba7565b848454612b2c565b825550505050565b5f90565b612be1612bd5565b612bec818484612bb0565b505050565b5b81811015612c0f57612c045f82612bd9565b600181019050612bf2565b5050565b601f821115612c5457612c2581612aff565b612c2e84612b11565b81016020851015612c3d578190505b612c51612c4985612b11565b830182612bf1565b50505b505050565b5f82821c905092915050565b5f612c745f1984600802612c59565b1980831691505092915050565b5f612c8c8383612c65565b9150826002028217905092915050565b612ca582612619565b67ffffffffffffffff811115612cbe57612cbd61243d565b5b612cc88254612acf565b612cd3828285612c13565b5f60209050601f831160018114612d04575f8415612cf2578287015190505b612cfc8582612c81565b865550612d63565b601f198416612d1286612aff565b5f5b82811015612d3957848901518255600182019150602085019450602081019050612d14565b86831015612d565784890151612d52601f891682612c65565b8355505b6001600288020188555050505b505050505050565b5f606082019050612d7e5f830186612711565b612d8b6020830185612777565b612d986040830184612711565b949350505050565b5f604082019050612db35f830185612711565b612dc06020830184612777565b9392505050565b7f4e487b71000000000000000000000000000000000000000000000000000000005f52603260045260245ffd5b5f81519050919050565b5f82825260208201905092915050565b5f612e1882612df4565b612e228185612dfe565b9350612e32818560208601612633565b612e3b8161242d565b840191505092915050565b5f608082019050612e595f830187612711565b612e666020830186612711565b612e736040830185612777565b8181036060830152612e858184612e0e565b905095945050505050565b5f81519050612e9e81612343565b92915050565b5f60208284031215612eb957612eb8612310565b5b5f612ec684828501612e90565b91505092915050565b5f612eda82856129e8565b9150612ee682846129e8565b91508190509392505050565b5f612efc826126b3565b9150612f07836126b3565b9250828203905081811115612f1f57612f1e612a2e565b5b92915050565b7f4e487b71000000000000000000000000000000000000000000000000000000005f52603160045260245ffd5b7f4e487b71000000000000000000000000000000000000000000000000000000005f52601260045260245ffdfea264697066735822122003ad9c1d1fa5e3b78e72386847d85217d5fc6778c21572fc26f4eddeab7762bc64736f6c63430008180033",
  "linkReferences": {},
  "deployedLinkReferences": {}
}