{
  "_format": "hh-sol-artifact-1",
  "contractName": "DigitalDeed",
  "sourceName": "contracts/DigitalDeed.sol",
  "abi": [
    {
      "inputs": [],
      "stateMutability": "nonpayable",
      "type": "constructor"
    },
    {
      "inputs": [],
      "name": "ERC721EnumerableForbiddenBatchMint",
      "type": "error"
    },
    {
      "inputs": [
        {
          "internalType": "address",
          "name": "sender",
          "type": "address"
        },
        {
          "internalType": "uint256",
          "name": "tokenId",
          "type": "uint256"
        },
        {
          "internalType": "address",
          "name": "owner",
          "type": "address"
        }
      ],
      "name": "ERC721IncorrectOwner",
      "type": "error"
    },
    {
      "inputs": [
        {
          "internalType": "address",
          "name": "operator",
          "type": "address"
        },
        {
          "internalType": "uint256",
          "name": "tokenId",
          "type": "uint256"
        }
      ],
      "name": "ERC721InsufficientApproval",
      "type": "error"
    },
    {
      "inputs": [
        {
          "internalType": "address",
          "name": "approver",
          "type": "address"
        }
      ],
      "name": "ERC721InvalidApprover",
      "type": "error"
    },
    {
      "inputs": [
        {
          "internalType": "address",
          "name": "operator",
          "type": "address"
        }
      ],
      "name": "ERC721InvalidOperator",
      "type": "error"
    },
    {
      "inputs": [
        {
          "internalType": "address",
          "name": "owner",
          "type": "address"
        }
      ],
      "name": "ERC721InvalidOwner",
      "type": "error"
    },
    {
      "inputs": [
        {
          "internalType": "address",
          "name": "receiver",
          "type": "address"
        }
      ],
      "name": "ERC721InvalidReceiver",
      "type": "error"
    },
    {
      "inputs": [
        {
          "internalType": "address",
          "name": "sender",
          "type": "address"
        }
      ],
      "name": "ERC721InvalidSender",
      "type": "error"
    },
    {
      "inputs": [
        {
          "internalType": "uint256",
          "name": "tokenId",
          "type": "uint256"
        }
      ],
      "name": "ERC721NonexistentToken",
      "type": "error"
    },
    {
      "inputs": [
        {
          "internalType": "address",
          "name": "owner",
          "type": "address"
        },
        {
          "internalType": "uint256",
          "name": "index",
          "type": "uint256"
        }
      ],
      "name": "ERC721OutOfBoundsIndex",
      "type": "error"
    },
    {
      "inputs": [
        {
          "internalType": "address",
          "name": "owner",
          "type": "address"
        }
      ],
      "name": "OwnableInvalidOwner",
      "type": "error"
    },
    {
      "inputs": [
        {
          "internalType": "address",
          "name": "account",
          "type": "address"
        }
      ],
      "name": "OwnableUnauthorizedAccount",
      "type": "error"
    },
    {
      "anonymous": false,
      "inputs": [
        {
          "indexed": true,
          "internalType": "address",
          "name": "owner",
          "type": "address"
        },
        {
          "indexed": true,
          "internalType": "address",
          "name": "approved",
          "type": "address"
        },
        {
          "indexed": true,
          "internalType": "uint256",
          "name": "tokenId",
          "type": "uint256"
        }
      ],
      "name": "Approval",
      "type": "event"
    },
    {
      "anonymous": false,
      "inputs": [
        {
          "indexed": true,
          "internalType": "address",
          "name": "owner",
          "type": "address"
        },
        {
          "indexed": true,
          "internalType": "address",
          "name": "operator",
          "type": "address"
        },
        {
          "indexed": false,
          "internalType": "bool",
          "name": "approved",
          "type": "bool"
        }
      ],
      "name": "ApprovalForAll",
      "type": "event"
    },
    {
      "anonymous": false,
      "inputs": [
        {
          "indexed": false,
          "internalType": "uint256",
          "name": "_fromTokenId",
          "type": "uint256"
        },
        {
          "indexed": false,
          "internalType": "uint256",
          "name": "_toTokenId",
          "type": "uint256"
        }
      ],
      "name": "BatchMetadataUpdate",
      "type": "event"
    },
    {
      "anonymous": false,
      "inputs": [
        {
          "indexed": false,
          "internalType": "uint256",
          "name": "_tokenId",
          "type": "uint256"
        }
      ],
      "name": "MetadataUpdate",
      "type": "event"
    },
    {
      "anonymous": false,
      "inputs": [
        {
          "indexed": true,
          "internalType": "address",
          "name": "previousOwner",
          "type": "address"
        },
        {
          "indexed": true,
          "internalType": "address",
          "name": "newOwner",
          "type": "address"
        }
      ],
      "name": "OwnershipTransferred",
      "type": "event"
    },
    {
      "anonymous": false,
      "inputs": [
        {
          "indexed": true,
          "internalType": "address",
          "name": "from",
          "type": "address"
        },
        {
          "indexed": true,
          "internalType": "address",
          "name": "to",
          "type": "address"
        },
        {
          "indexed": true,
          "internalType": "uint256",
          "name": "tokenId",
          "type": "uint256"
        }
      ],
      "name": "Transfer",
      "type": "event"
    },
    {
      "inputs": [
        {
          "internalType": "address",
          "name": "to",
          "type": "address"
        },
        {
          "internalType": "uint256",
          "name": "tokenId",
          "type": "uint256"
        }
      ],
      "name": "approve",
      "outputs": [],
      "stateMutability": "nonpayable",
      "type": "function"
    },
    {
      "inputs": [
        {
          "internalType": "address",
          "name": "owner",
          "type": "address"
        }
      ],
      "name": "balanceOf",
      "outputs": [
        {
          "internalType": "uint256",
          "name": "",
          "type": "uint256"
        }
      ],
      "stateMutability": "view",
      "type": "function"
    },
    {
      "inputs": [
        {
          "internalType": "uint256",
          "name": "tokenId",
          "type": "uint256"
        }
      ],
      "name": "getApproved",
      "outputs": [
        {
          "internalType": "address",
          "name": "",
          "type": "address"
        }
      ],
      "stateMutability": "view",
      "type": "function"
    },
    {
      "inputs": [
        {
          "internalType": "address",
          "name": "owner",
          "type": "address"
        },
        {
          "internalType": "address",
          "name": "operator",
          "type": "address"
        }
      ],
      "name": "isApprovedForAll",
      "outputs": [
        {
          "internalType": "bool",
          "name": "",
          "type": "bool"
        }
      ],
      "stateMutability": "view",
      "type": "function"
    },
    {
      "inputs": [],
      "name": "name",
      "outputs": [
        {
          "internalType": "string",
          "name": "",
          "type": "string"
        }
      ],
      "stateMutability": "view",
      "type": "function"
    },
    {
      "inputs": [],
      "name": "owner",
      "outputs": [
        {
          "internalType": "address",
          "name": "",
          "type": "address"
        }
      ],
      "stateMutability": "view",
      "type": "function"
    },
    {
      "inputs": [
        {
          "internalType": "uint256",
          "name": "tokenId",
          "type": "uint256"
        }
      ],
      "name": "ownerOf",
      "outputs": [
        {
          "internalType": "address",
          "name": "",
          "type": "address"
        }
      ],
      "stateMutability": "view",
      "type": "function"
    },
    {
      "inputs": [],
      "name": "renounceOwnership",
      "outputs": [],
      "stateMutability": "nonpayable",
      "type": "function"
    },
    {
      "inputs": [
        {
          "internalType": "address",
          "name": "to",
          "type": "address"
        },
        {
          "internalType": "string",
          "name": "uri",
          "type": "string"
        }
      ],
      "name": "safeMint",
      "outputs": [],
      "stateMutability": "nonpayable",
      "type": "function"
    },
    {
      "inputs": [
        {
          "internalType": "address",
          "name": "from",
          "type": "address"
        },
        {
          "internalType": "address",
          "name": "to",
          "type": "address"
        },
        {
          "internalType": "uint256",
          "name": "tokenId",
          "type": "uint256"
        }
      ],
      "name": "safeTransferFrom",
      "outputs": [],
      "stateMutability": "nonpayable",
      "type": "function"
    },
    {
      "inputs": [
        {
          "internalType": "address",
          "name": "from",
          "type": "address"
        },
        {
          "internalType": "address",
          "name": "to",
          "type": "address"
        },
        {
          "internalType": "uint256",
          "name": "tokenId",
          "type": "uint256"
        },
        {
          "internalType": "bytes",
          "name": "data",
          "type": "bytes"
        }
      ],
      "name": "safeTransferFrom",
      "outputs": [],
      "stateMutability": "nonpayable",
      "type": "function"
    },
    {
      "inputs": [
        {
          "internalType": "address",
          "name": "operator",
          "type": "address"
        },
        {
          "internalType": "bool",
          "name": "approved",
          "type": "bool"
        }
      ],
      "name": "setApprovalForAll",
      "outputs": [],
      "stateMutability": "nonpayable",
      "type": "function"
    },
    {
      "inputs": [
        {
          "internalType": "bytes4",
          "name": "interfaceId",
          "type": "bytes4"
        }
      ],
      "name": "supportsInterface",
      "outputs": [
        {
          "internalType": "bool",
          "name": "",
          "type": "bool"
        }
      ],
      "stateMutability": "view",
      "type": "function"
    },
    {
      "inputs": [],
      "name": "symbol",
      "outputs": [
        {
          "internalType": "string",
          "name": "",
          "type": "string"
        }
      ],
      "stateMutability": "view",
      "type": "function"
    },
    {
      "inputs": [
        {
          "internalType": "uint256",
          "name": "index",
          "type": "uint256"
        }
      ],
      "name": "tokenByIndex",
      "outputs": [
        {
          "internalType": "uint256",
          "name": "",
          "type": "uint256"
        }
      ],
      "stateMutability": "view",
      "type": "function"
    },
    {
      "inputs": [
        {
          "internalType": "address",
          "name": "owner",
          "type": "address"
        },
        {
          "internalType": "uint256",
          "name": "index",
          "type": "uint256"
        }
      ],
      "name": "tokenOfOwnerByIndex",
      "outputs": [
        {
          "internalType": "uint256",
          "name": "",
          "type": "uint256"
        }
      ],
      "stateMutability": "view",
      "type": "function"
    },
    {
      "inputs": [
        {
          "internalType": "uint256",
          "name": "tokenId",
          "type": "uint256"
        }
      ],
      "name": "tokenURI",
      "outputs": [
        {
          "internalType": "string",
          "name": "",
          "type": "string"
        }
      ],
      "stateMutability": "view",
      "type": "function"
    },
    {
      "inputs": [],
      "name": "totalSupply",
      "outputs": [
        {
          "internalType": "uint256",
          "name": "",
          "type": "uint256"
        }
      ],
      "stateMutability": "view",
      "type": "function"
    },
    {
      "inputs": [
        {
          "internalType": "address",
          "name": "from",
          "type": "address"
        },
        {
          "internalType": "address",
          "name": "to",
          "type": "address"
        },
        {
          "internalType": "uint256",
          "name": "tokenId",
          "type": "uint256"
        }
      ],
      "name": "transferFrom",
      "outputs": [],
      "stateMutability": "nonpayable",
      "type": "function"
    },
    {
      "inputs": [
        {
          "internalType": "address",
          "name": "newOwner",
          "type": "address"
        }
      ],
      "name": "transferOwnership",
      "outputs": [],
      "stateMutability": "nonpayable",
      "type": "function"
    }
  ],
  "bytecode": "0x608060405234801562000010575f80fd5b50336040518060400160405280600b81526020017f4469676974616c446565640000000000000000000000000000000000000000008152506040518060400160405280600481526020017f4445454400000000000000000000000000000000000000000000000000000000815250815f90816200008e919062000455565b508060019081620000a0919062000455565b5050505f73ffffffffffffffffffffffffffffffffffffffff168173ffffffffffffffffffffffffffffffffffffffff160362000116575f6040517f1e4fbdf70000000000000000000000000000000000000000000000000000000081526004016200010d91906200057c565b60405180910390fd5b62000127816200012e60201b60201c565b5062000597565b5f600b5f9054906101000a900473ffffffffffffffffffffffffffffffffffffffff16905081600b5f6101000a81548173ffffffffffffffffffffffffffffffffffffffff021916908373ffffffffffffffffffffffffffffffffffffffff1602179055508173ffffffffffffffffffffffffffffffffffffffff168173ffffffffffffffffffffffffffffffffffffffff167f8be0079c531659141344cd1fd0a4f28419497f9722a3daafe3b4186f6b6457e060405160405180910390a35050565b5f81519050919050565b7f4e487b71000000000000000000000000000000000000000000000000000000005f52604160045260245ffd5b7f4e487b71000000000000000000000000000000000000000000000000000000005f52602260045260245ffd5b5f60028204905060018216806200026d57607f821691505b60208210810362000283576200028262000228565b5b50919050565b5f819050815f5260205f209050919050565b5f6020601f8301049050919050565b5f82821b905092915050565b5f60088302620002e77fffffffffffffffffffffffffffffffffffffffffffffffffffffffffffffffff82620002aa565b620002f38683620002aa565b95508019841693508086168417925050509392505050565b5f819050919050565b5f819050919050565b5f6200033d6200033762000331846200030b565b62000314565b6200030b565b9050919050565b5f819050919050565b62000358836200031d565b62000370620003678262000344565b848454620002b6565b825550505050565b5f90565b6200038662000378565b620003938184846200034d565b505050565b5b81811015620003ba57620003ae5f826200037c565b60018101905062000399565b5050565b601f8211156200040957620003d38162000289565b620003de846200029b565b81016020851015620003ee578190505b62000406620003fd856200029b565b83018262000398565b50505b505050565b5f82821c905092915050565b5f6200042b5f19846008026200040e565b1980831691505092915050565b5f6200044583836200041a565b9150826002028217905092915050565b6200046082620001f1565b67ffffffffffffffff8111156200047c576200047b620001fb565b5b62000488825462000255565b62000495828285620003be565b5f60209050601f831160018114620004cb575f8415620004b6578287015190505b620004c2858262000438565b86555062000531565b601f198416620004db8662000289565b5f5b828110156200050457848901518255600182019150602085019450602081019050620004dd565b8683101562000524578489015162000520601f8916826200041a565b8355505b6001600288020188555050505b505050505050565b5f73ffffffffffffffffffffffffffffffffffffffff82169050919050565b5f620005648262000539565b9050919050565b620005768162000558565b82525050565b5f602082019050620005915f8301846200056b565b92915050565b612c8180620005a55f395ff3fe608060405234801561000f575f80fd5b506004361061012a575f3560e01c806370a08231116100ab578063b88d4fde1161006f578063b88d4fde14610340578063c87b56dd1461035c578063d204c45e1461038c578063e985e9c5146103a8578063f2fde38b146103d85761012a565b806370a08231146102ae578063715018a6146102de5780638da5cb5b146102e857806395d89b4114610306578063a22cb465146103245761012a565b806323b872dd116100f257806323b872dd146101e65780632f745c591461020257806342842e0e146102325780634f6ccce71461024e5780636352211e1461027e5761012a565b806301ffc9a71461012e57806306fdde031461015e578063081812fc1461017c578063095ea7b3146101ac57806318160ddd146101c8575b5f80fd5b610148600480360381019061014391906120ad565b6103f4565b60405161015591906120f2565b60405180910390f35b610166610405565b6040516101739190612195565b60405180910390f35b610196600480360381019061019191906121e8565b610494565b6040516101a39190612252565b60405180910390f35b6101c660048036038101906101c19190612295565b6104af565b005b6101d06104c5565b6040516101dd91906122e2565b60405180910390f35b61020060048036038101906101fb91906122fb565b6104d1565b005b61021c60048036038101906102179190612295565b6105d0565b60405161022991906122e2565b60405180910390f35b61024c600480360381019061024791906122fb565b610674565b005b610268600480360381019061026391906121e8565b610693565b60405161027591906122e2565b60405180910390f35b610298600480360381019061029391906121e8565b610705565b6040516102a59190612252565b60405180910390f35b6102c860048036038101906102c3919061234b565b610716565b6040516102d591906122e2565b60405180910390f35b6102e66107cc565b005b6102f06107df565b6040516102fd9190612252565b60405180910390f35b61030e610807565b60405161031b9190612195565b60405180910390f35b61033e600480360381019061033991906123a0565b610897565b005b61035a6004803603810190610355919061250a565b6108ad565b005b610376600480360381019061037191906121e8565b6108d2565b6040516103839190612195565b60405180910390f35b6103a660048036038101906103a19190612628565b6108e4565b005b6103c260048036038101906103bd9190612682565b610916565b6040516103cf91906120f2565b60405180910390f35b6103f260048036038101906103ed919061234b565b6109a4565b005b5f6103fe82610a28565b9050919050565b60605f8054610413906126ed565b80601f016020809104026020016040519081016040528092919081815260200182805461043f906126ed565b801561048a5780601f106104615761010080835404028352916020019161048a565b820191905f5260205f20905b81548152906001019060200180831161046d57829003601f168201915b5050505050905090565b5f61049e82610a88565b506104a882610b0e565b9050919050565b6104c182826104bc610b47565b610b4e565b5050565b5f600880549050905090565b5f73ffffffffffffffffffffffffffffffffffffffff168273ffffffffffffffffffffffffffffffffffffffff1603610541575f6040517f64a0ae920000000000000000000000000000000000000000000000000000000081526004016105389190612252565b60405180910390fd5b5f610554838361054f610b47565b610b60565b90508373ffffffffffffffffffffffffffffffffffffffff168173ffffffffffffffffffffffffffffffffffffffff16146105ca578382826040517f64283d7b0000000000000000000000000000000000000000000000000000000081526004016105c19392919061271d565b60405180910390fd5b50505050565b5f6105da83610716565b821061061f5782826040517fa57d13dc000000000000000000000000000000000000000000000000000000008152600401610616929190612752565b60405180910390fd5b60065f8473ffffffffffffffffffffffffffffffffffffffff1673ffffffffffffffffffffffffffffffffffffffff1681526020019081526020015f205f8381526020019081526020015f2054905092915050565b61068e83838360405180602001604052805f8152506108ad565b505050565b5f61069c6104c5565b82106106e1575f826040517fa57d13dc0000000000000000000000000000000000000000000000000000000081526004016106d8929190612752565b60405180910390fd5b600882815481106106f5576106f4612779565b5b905f5260205f2001549050919050565b5f61070f82610a88565b9050919050565b5f8073ffffffffffffffffffffffffffffffffffffffff168273ffffffffffffffffffffffffffffffffffffffff1603610787575f6040517f89c62b6400000000000000000000000000000000000000000000000000000000815260040161077e9190612252565b60405180910390fd5b60035f8373ffffffffffffffffffffffffffffffffffffffff1673ffffffffffffffffffffffffffffffffffffffff1681526020019081526020015f20549050919050565b6107d4610b75565b6107dd5f610bfc565b565b5f600b5f9054906101000a900473ffffffffffffffffffffffffffffffffffffffff16905090565b606060018054610816906126ed565b80601f0160208091040260200160405190810160405280929190818152602001828054610842906126ed565b801561088d5780601f106108645761010080835404028352916020019161088d565b820191905f5260205f20905b81548152906001019060200180831161087057829003601f168201915b5050505050905090565b6108a96108a2610b47565b8383610cbf565b5050565b6108b88484846104d1565b6108cc6108c3610b47565b85858585610e98565b50505050565b60606108dd82611044565b9050919050565b5f600c5f8154809291906108f7906127d3565b91905055905061090783826110c0565b61091181836110dd565b505050565b5f60055f8473ffffffffffffffffffffffffffffffffffffffff1673ffffffffffffffffffffffffffffffffffffffff1681526020019081526020015f205f8373ffffffffffffffffffffffffffffffffffffffff1673ffffffffffffffffffffffffffffffffffffffff1681526020019081526020015f205f9054906101000a900460ff16905092915050565b6109ac610b75565b5f73ffffffffffffffffffffffffffffffffffffffff168173ffffffffffffffffffffffffffffffffffffffff1603610a1c575f6040517f1e4fbdf7000000000000000000000000000000000000000000000000000000008152600401610a139190612252565b60405180910390fd5b610a2581610bfc565b50565b5f634906490660e01b7bffffffffffffffffffffffffffffffffffffffffffffffffffffffff1916827bffffffffffffffffffffffffffffffffffffffffffffffffffffffff19161480610a815750610a8082611137565b5b9050919050565b5f80610a93836111b0565b90505f73ffffffffffffffffffffffffffffffffffffffff168173ffffffffffffffffffffffffffffffffffffffff1603610b0557826040517f7e273289000000000000000000000000000000000000000000000000000000008152600401610afc91906122e2565b60405180910390fd5b80915050919050565b5f60045f8381526020019081526020015f205f9054906101000a900473ffffffffffffffffffffffffffffffffffffffff169050919050565b5f33905090565b610b5b83838360016111e9565b505050565b5f610b6c8484846113a8565b90509392505050565b610b7d610b47565b73ffffffffffffffffffffffffffffffffffffffff16610b9b6107df565b73ffffffffffffffffffffffffffffffffffffffff1614610bfa57610bbe610b47565b6040517f118cdaa7000000000000000000000000000000000000000000000000000000008152600401610bf19190612252565b60405180910390fd5b565b5f600b5f9054906101000a900473ffffffffffffffffffffffffffffffffffffffff16905081600b5f6101000a81548173ffffffffffffffffffffffffffffffffffffffff021916908373ffffffffffffffffffffffffffffffffffffffff1602179055508173ffffffffffffffffffffffffffffffffffffffff168173ffffffffffffffffffffffffffffffffffffffff167f8be0079c531659141344cd1fd0a4f28419497f9722a3daafe3b4186f6b6457e060405160405180910390a35050565b5f73ffffffffffffffffffffffffffffffffffffffff168373ffffffffffffffffffffffffffffffffffffffff1603610d2f575f6040517fa9fbf51f000000000000000000000000000000000000000000000000000000008152600401610d269190612252565b60405180910390fd5b5f73ffffffffffffffffffffffffffffffffffffffff168273ffffffffffffffffffffffffffffffffffffffff1603610d9f57816040517f5b08ba18000000000000000000000000000000000000000000000000000000008152600401610d969190612252565b60405180910390fd5b8060055f8573ffffffffffffffffffffffffffffffffffffffff1673ffffffffffffffffffffffffffffffffffffffff1681526020019081526020015f205f8473ffffffffffffffffffffffffffffffffffffffff1673ffffffffffffffffffffffffffffffffffffffff1681526020019081526020015f205f6101000a81548160ff0219169083151502179055508173ffffffffffffffffffffffffffffffffffffffff168373ffffffffffffffffffffffffffffffffffffffff167f17307eab39ab6107e8899845ad3d59bd9653f200f220920489ca2b5937696c3183604051610e8b91906120f2565b60405180910390a3505050565b5f8373ffffffffffffffffffffffffffffffffffffffff163b111561103d578273ffffffffffffffffffffffffffffffffffffffff1663150b7a02868685856040518563ffffffff1660e01b8152600401610ef6949392919061286c565b6020604051808303815f875af1925050508015610f3157506040513d601f19601f82011682018060405250810190610f2e91906128ca565b60015b610fb2573d805f8114610f5f576040519150601f19603f3d011682016040523d82523d5f602084013e610f64565b606091505b505f815103610faa57836040517f64a0ae92000000000000000000000000000000000000000000000000000000008152600401610fa19190612252565b60405180910390fd5b805160208201fd5b63150b7a0260e01b7bffffffffffffffffffffffffffffffffffffffffffffffffffffffff1916817bffffffffffffffffffffffffffffffffffffffffffffffffffffffff19161461103b57836040517f64a0ae920000000000000000000000000000000000000000000000000000000081526004016110329190612252565b60405180910390fd5b505b5050505050565b606061104f82610a88565b505f6110596114c2565b90505f611065846114d8565b90505f8251036110795780925050506110bb565b5f815111156110ad57818160405160200161109592919061292f565b604051602081830303815290604052925050506110bb565b6110b684611579565b925050505b919050565b6110d9828260405180602001604052805f8152506115df565b5050565b80600a5f8481526020019081526020015f2090816110fb9190612aef565b507ff8e1a15aba9398e019f0b49df1a4fde98ee17ae345cb5f6b5e2c27f5033e8ce78260405161112b91906122e2565b60405180910390a15050565b5f7f780e9d63000000000000000000000000000000000000000000000000000000007bffffffffffffffffffffffffffffffffffffffffffffffffffffffff1916827bffffffffffffffffffffffffffffffffffffffffffffffffffffffff191614806111a957506111a882611602565b5b9050919050565b5f60025f8381526020019081526020015f205f9054906101000a900473ffffffffffffffffffffffffffffffffffffffff169050919050565b808061122157505f73ffffffffffffffffffffffffffffffffffffffff168273ffffffffffffffffffffffffffffffffffffffff1614155b15611353575f61123084610a88565b90505f73ffffffffffffffffffffffffffffffffffffffff168373ffffffffffffffffffffffffffffffffffffffff161415801561129a57508273ffffffffffffffffffffffffffffffffffffffff168173ffffffffffffffffffffffffffffffffffffffff1614155b80156112ad57506112ab8184610916565b155b156112ef57826040517fa9fbf51f0000000000000000000000000000000000000000000000000000000081526004016112e69190612252565b60405180910390fd5b811561135157838573ffffffffffffffffffffffffffffffffffffffff168273ffffffffffffffffffffffffffffffffffffffff167f8c5be1e5ebec7d5bd14f71427d1e84f3dd0314c0f7b2291e5b200ac8c7c3b92560405160405180910390a45b505b8360045f8581526020019081526020015f205f6101000a81548173ffffffffffffffffffffffffffffffffffffffff021916908373ffffffffffffffffffffffffffffffffffffffff16021790555050505050565b5f806113b58585856116e3565b90505f73ffffffffffffffffffffffffffffffffffffffff168173ffffffffffffffffffffffffffffffffffffffff16036113f8576113f3846118ee565b611437565b8473ffffffffffffffffffffffffffffffffffffffff168173ffffffffffffffffffffffffffffffffffffffff1614611436576114358185611932565b5b5b5f73ffffffffffffffffffffffffffffffffffffffff168573ffffffffffffffffffffffffffffffffffffffff16036114785761147384611a09565b6114b7565b8473ffffffffffffffffffffffffffffffffffffffff168173ffffffffffffffffffffffffffffffffffffffff16146114b6576114b58585611ac9565b5b5b809150509392505050565b606060405180602001604052805f815250905090565b6060600a5f8381526020019081526020015f2080546114f6906126ed565b80601f0160208091040260200160405190810160405280929190818152602001828054611522906126ed565b801561156d5780601f106115445761010080835404028352916020019161156d565b820191905f5260205f20905b81548152906001019060200180831161155057829003601f168201915b50505050509050919050565b606061158482610a88565b505f61158e6114c2565b90505f8151116115ac5760405180602001604052805f8152506115d7565b806115b684611b4d565b6040516020016115c792919061292f565b6040516020818303038152906040525b915050919050565b6115e98383611c17565b6115fd6115f4610b47565b5f858585610e98565b505050565b5f7f80ac58cd000000000000000000000000000000000000000000000000000000007bffffffffffffffffffffffffffffffffffffffffffffffffffffffff1916827bffffffffffffffffffffffffffffffffffffffffffffffffffffffff191614806116cc57507f5b5e139f000000000000000000000000000000000000000000000000000000007bffffffffffffffffffffffffffffffffffffffffffffffffffffffff1916827bffffffffffffffffffffffffffffffffffffffffffffffffffffffff1916145b806116dc57506116db82611d0a565b5b9050919050565b5f806116ee846111b0565b90505f73ffffffffffffffffffffffffffffffffffffffff168373ffffffffffffffffffffffffffffffffffffffff161461172f5761172e818486611d73565b5b5f73ffffffffffffffffffffffffffffffffffffffff168173ffffffffffffffffffffffffffffffffffffffff16146117ba5761176e5f855f806111e9565b600160035f8373ffffffffffffffffffffffffffffffffffffffff1673ffffffffffffffffffffffffffffffffffffffff1681526020019081526020015f205f82825403925050819055505b5f73ffffffffffffffffffffffffffffffffffffffff168573ffffffffffffffffffffffffffffffffffffffff161461183957600160035f8773ffffffffffffffffffffffffffffffffffffffff1673ffffffffffffffffffffffffffffffffffffffff1681526020019081526020015f205f82825401925050819055505b8460025f8681526020019081526020015f205f6101000a81548173ffffffffffffffffffffffffffffffffffffffff021916908373ffffffffffffffffffffffffffffffffffffffff160217905550838573ffffffffffffffffffffffffffffffffffffffff168273ffffffffffffffffffffffffffffffffffffffff167fddf252ad1be2c89b69c2b068fc378daa952ba7f163c4a11628f55a4df523b3ef60405160405180910390a4809150509392505050565b60088054905060095f8381526020019081526020015f2081905550600881908060018154018082558091505060019003905f5260205f20015f909190919091505550565b5f61193c83610716565b90505f60075f8481526020019081526020015f205490505f60065f8673ffffffffffffffffffffffffffffffffffffffff1673ffffffffffffffffffffffffffffffffffffffff1681526020019081526020015f2090508282146119db575f815f8581526020019081526020015f2054905080825f8581526020019081526020015f20819055508260075f8381526020019081526020015f2081905550505b60075f8581526020019081526020015f205f9055805f8481526020019081526020015f205f90555050505050565b5f6001600880549050611a1c9190612bbe565b90505f60095f8481526020019081526020015f205490505f60088381548110611a4857611a47612779565b5b905f5260205f20015490508060088381548110611a6857611a67612779565b5b905f5260205f2001819055508160095f8381526020019081526020015f208190555060095f8581526020019081526020015f205f90556008805480611ab057611aaf612bf1565b5b600190038181905f5260205f20015f9055905550505050565b5f6001611ad584610716565b611adf9190612bbe565b90508160065f8573ffffffffffffffffffffffffffffffffffffffff1673ffffffffffffffffffffffffffffffffffffffff1681526020019081526020015f205f8381526020019081526020015f20819055508060075f8481526020019081526020015f2081905550505050565b60605f6001611b5b84611e36565b0190505f8167ffffffffffffffff811115611b7957611b786123e6565b5b6040519080825280601f01601f191660200182016040528015611bab5781602001600182028036833780820191505090505b5090505f82602083010190505b600115611c0c578080600190039150507f3031323334353637383961626364656600000000000000000000000000000000600a86061a8153600a8581611c0157611c00612c1e565b5b0494505f8503611bb8575b819350505050919050565b5f73ffffffffffffffffffffffffffffffffffffffff168273ffffffffffffffffffffffffffffffffffffffff1603611c87575f6040517f64a0ae92000000000000000000000000000000000000000000000000000000008152600401611c7e9190612252565b60405180910390fd5b5f611c9383835f610b60565b90505f73ffffffffffffffffffffffffffffffffffffffff168173ffffffffffffffffffffffffffffffffffffffff1614611d05575f6040517f73c6ac6e000000000000000000000000000000000000000000000000000000008152600401611cfc9190612252565b60405180910390fd5b505050565b5f7f01ffc9a7000000000000000000000000000000000000000000000000000000007bffffffffffffffffffffffffffffffffffffffffffffffffffffffff1916827bffffffffffffffffffffffffffffffffffffffffffffffffffffffff1916149050919050565b611d7e838383611f87565b611e31575f73ffffffffffffffffffffffffffffffffffffffff168373ffffffffffffffffffffffffffffffffffffffff1603611df257806040517f7e273289000000000000000000000000000000000000000000000000000000008152600401611de991906122e2565b60405180910390fd5b81816040517f177e802f000000000000000000000000000000000000000000000000000000008152600401611e28929190612752565b60405180910390fd5b505050565b5f805f90507a184f03e93ff9f4daa797ed6e38ed64bf6a1f0100000000000000008310611e92577a184f03e93ff9f4daa797ed6e38ed64bf6a1f0100000000000000008381611e8857611e87612c1e565b5b0492506040810190505b6d04ee2d6d415b85acef81000000008310611ecf576d04ee2d6d415b85acef81000000008381611ec557611ec4612c1e565b5b0492506020810190505b662386f26fc100008310611efe57662386f26fc100008381611ef457611ef3612c1e565b5b0492506010810190505b6305f5e1008310611f27576305f5e1008381611f1d57611f1c612c1e565b5b0492506008810190505b6127108310611f4c576127108381611f4257611f41612c1e565b5b0492506004810190505b60648310611f6f5760648381611f6557611f64612c1e565b5b0492506002810190505b600a8310611f7e576001810190505b80915050919050565b5f8073ffffffffffffffffffffffffffffffffffffffff168373ffffffffffffffffffffffffffffffffffffffff161415801561203e57508273ffffffffffffffffffffffffffffffffffffffff168473ffffffffffffffffffffffffffffffffffffffff161480611fff5750611ffe8484610916565b5b8061203d57508273ffffffffffffffffffffffffffffffffffffffff1661202583610b0e565b73ffffffffffffffffffffffffffffffffffffffff16145b5b90509392505050565b5f604051905090565b5f80fd5b5f80fd5b5f7fffffffff0000000000000000000000000000000000000000000000000000000082169050919050565b61208c81612058565b8114612096575f80fd5b50565b5f813590506120a781612083565b92915050565b5f602082840312156120c2576120c1612050565b5b5f6120cf84828501612099565b91505092915050565b5f8115159050919050565b6120ec816120d8565b82525050565b5f6020820190506121055f8301846120e3565b92915050565b5f81519050919050565b5f82825260208201905092915050565b5f5b83811015612142578082015181840152602081019050612127565b5f8484015250505050565b5f601f19601f8301169050919050565b5f6121678261210b565b6121718185612115565b9350612181818560208601612125565b61218a8161214d565b840191505092915050565b5f6020820190508181035f8301526121ad818461215d565b905092915050565b5f819050919050565b6121c7816121b5565b81146121d1575f80fd5b50565b5f813590506121e2816121be565b92915050565b5f602082840312156121fd576121fc612050565b5b5f61220a848285016121d4565b91505092915050565b5f73ffffffffffffffffffffffffffffffffffffffff82169050919050565b5f61223c82612213565b9050919050565b61224c81612232565b82525050565b5f6020820190506122655f830184612243565b92915050565b61227481612232565b811461227e575f80fd5b50565b5f8135905061228f8161226b565b92915050565b5f80604083850312156122ab576122aa612050565b5b5f6122b885828601612281565b92505060206122c9858286016121d4565b9150509250929050565b6122dc816121b5565b82525050565b5f6020820190506122f55f8301846122d3565b92915050565b5f805f6060848603121561231257612311612050565b5b5f61231f86828701612281565b935050602061233086828701612281565b9250506040612341868287016121d4565b9150509250925092565b5f602082840312156123605761235f612050565b5b5f61236d84828501612281565b91505092915050565b61237f816120d8565b8114612389575f80fd5b50565b5f8135905061239a81612376565b92915050565b5f80604083850312156123b6576123b5612050565b5b5f6123c385828601612281565b92505060206123d48582860161238c565b9150509250929050565b5f80fd5b5f80fd5b7f4e487b71000000000000000000000000000000000000000000000000000000005f52604160045260245ffd5b61241c8261214d565b810181811067ffffffffffffffff8211171561243b5761243a6123e6565b5b80604052505050565b5f61244d612047565b90506124598282612413565b919050565b5f67ffffffffffffffff821115612478576124776123e6565b5b6124818261214d565b9050602081019050919050565b828183375f83830152505050565b5f6124ae6124a98461245e565b612444565b9050828152602081018484840111156124ca576124c96123e2565b5b6124d584828561248e565b509392505050565b5f82601f8301126124f1576124f06123de565b5b813561250184826020860161249c565b91505092915050565b5f805f806080858703121561252257612521612050565b5b5f61252f87828801612281565b945050602061254087828801612281565b9350506040612551878288016121d4565b925050606085013567ffffffffffffffff81111561257257612571612054565b5b61257e878288016124dd565b91505092959194509250565b5f67ffffffffffffffff8211156125a4576125a36123e6565b5b6125ad8261214d565b9050602081019050919050565b5f6125cc6125c78461258a565b612444565b9050828152602081018484840111156125e8576125e76123e2565b5b6125f384828561248e565b509392505050565b5f82601f83011261260f5761260e6123de565b5b813561261f8482602086016125ba565b91505092915050565b5f806040838503121561263e5761263d612050565b5b5f61264b85828601612281565b925050602083013567ffffffffffffffff81111561266c5761266b612054565b5b612678858286016125fb565b9150509250929050565b5f806040838503121561269857612697612050565b5b5f6126a585828601612281565b92505060206126b685828601612281565b9150509250929050565b7f4e487b71000000000000000000000000000000000000000000000000000000005f52602260045260245ffd5b5f600282049050600182168061270457607f821691505b602082108103612717576127166126c0565b5b50919050565b5f6060820190506127305f830186612243565b61273d60208301856122d3565b61274a6040830184612243565b949350505050565b5f6040820190506127655f830185612243565b61277260208301846122d3565b9392505050565b7f4e487b71000000000000000000000000000000000000000000000000000000005f52603260045260245ffd5b7f4e487b71000000000000000000000000000000000000000000000000000000005f52601160045260245ffd5b5f6127dd826121b5565b91507fffffffffffffffffffffffffffffffffffffffffffffffffffffffffffffffff820361280f5761280e6127a6565b5b600182019050919050565b5f81519050919050565b5f82825260208201905092915050565b5f61283e8261281a565b6128488185612824565b9350612858818560208601612125565b6128618161214d565b840191505092915050565b5f60808201905061287f5f830187612243565b61288c6020830186612243565b61289960408301856122d3565b81810360608301526128ab8184612834565b905095945050505050565b5f815190506128c481612083565b92915050565b5f602082840312156128df576128de612050565b5b5f6128ec848285016128b6565b91505092915050565b5f81905092915050565b5f6129098261210b565b61291381856128f5565b9350612923818560208601612125565b80840191505092915050565b5f61293a82856128ff565b915061294682846128ff565b91508190509392505050565b5f819050815f5260205f209050919050565b5f6020601f8301049050919050565b5f82821b905092915050565b5f600883026129ae7fffffffffffffffffffffffffffffffffffffffffffffffffffffffffffffffff82612973565b6129b88683612973565b95508019841693508086168417925050509392505050565b5f819050919050565b5f6129f36129ee6129e9846121b5565b6129d0565b6121b5565b9050919050565b5f819050919050565b612a0c836129d9565b612a20612a18826129fa565b84845461297f565b825550505050565b5f90565b612a34612a28565b612a3f818484612a03565b505050565b5b81811015612a6257612a575f82612a2c565b600181019050612a45565b5050565b601f821115612aa757612a7881612952565b612a8184612964565b81016020851015612a90578190505b612aa4612a9c85612964565b830182612a44565b50505b505050565b5f82821c905092915050565b5f612ac75f1984600802612aac565b1980831691505092915050565b5f612adf8383612ab8565b9150826002028217905092915050565b612af88261210b565b67ffffffffffffffff811115612b1157612b106123e6565b5b612b1b82546126ed565b612b26828285612a66565b5f60209050601f831160018114612b57575f8415612b45578287015190505b612b4f8582612ad4565b865550612bb6565b601f198416612b6586612952565b5f5b82811015612b8c57848901518255600182019150602085019450602081019050612b67565b86831015612ba95784890151612ba5601f891682612ab8565b8355505b6001600288020188555050505b505050505050565b5f612bc8826121b5565b9150612bd3836121b5565b9250828203905081811115612beb57612bea6127a6565b5b92915050565b7f4e487b71000000000000000000000000000000000000000000000000000000005f52603160045260245ffd5b7f4e487b71000000000000000000000000000000000000000000000000000000005f52601260045260245ffdfea2646970667358221220d642da78da8e1067574d83c45487fb8fe7fb58bad9ca963efe38c7025ea44e9564736f6c63430008180033",
  "linkReferences": {},
  "deployedLinkReferences": {}
}