{
  "_format": "hh-sol-artifact-1",
  "contractName": "DigitalDeed",
  "sourceName": "contracts/DigitalDeed.sol",
  "abi": [
    {
      "inputs": [],
      "stateMutability": "nonpayable",
      "type": "constructor"
    },
    {
      "inputs": [],
      "name": "ERC721EnumerableForbiddenBatchMint",
      "type": "error"
    },
    {
      "inputs": [
        {
          "internalType": "address",
          "name": "sender",
          "type": "address"
        },
        {
          "internalType": "uint256",
          "name": "tokenId",
          "type": "uint256"
        },
        {
          "internalType": "address",
          "name": "owner",
          "type": "address"
        }
      ],
      "name": "ERC721IncorrectOwner",
      "type": "error"
    },
    {
      "inputs": [
        {
          "internalType": "address",
          "name": "operator",
          "type": "address"
        },
        {
          "internalType": "uint256",
          "name": "tokenId",
          "type": "uint256"
        }
      ],
      "name": "ERC721InsufficientApproval",
      "type": "error"
    },
    {
      "inputs": [
        {
          "internalType": "address",
          "name": "approver",
          "type": "address"
        }
      ],
      "name": "ERC721InvalidApprover",
      "type": "error"
    },
    {
      "inputs": [
        {
          "internalType": "address",
          "name": "operator",
          "type": "address"
        }
      ],
      "name": "ERC721InvalidOperator",
      "type": "error"
    },
    {
      "inputs": [
        {
          "internalType": "address",
          "name": "owner",
          "type": "address"
        }
      ],
      "name": "ERC721InvalidOwner",
      "type": "error"
    },
    {
      "inputs": [
        {
          "internalType": "address",
          "name": "receiver",
          "type": "address"
        }
      ],
      "name": "ERC721InvalidReceiver",
      "type": "error"
    },
    {
      "inputs": [
        {
          "internalType": "address",
          "name": "sender",
          "type": "address"
        }
      ],
      "name": "ERC721InvalidSender",
      "type": "error"
    },
    {
      "inputs": [
        {
          "internalType": "uint256",
          "name": "tokenId",
          "type": "uint256"
        }
      ],
      "name": "ERC721NonexistentToken",
      "type": "error"
    },
    {
      "inputs": [
        {
          "internalType": "address",
          "name": "owner",
          "type": "address"
        },
        {
          "internalType": "uint256",
          "name": "index",
          "type": "uint256"
        }
      ],
      "name": "ERC721OutOfBoundsIndex",
      "type": "error"
    },
    {
      "inputs": [
        {
          "internalType": "address",
          "name": "owner",
          "type": "address"
        }
      ],
      "name": "OwnableInvalidOwner",
      "type": "error"
    },
    {
      "inputs": [
        {
          "internalType": "address",
          "name": "account",
          "type": "address"
        }
      ],
      "name": "OwnableUnauthorizedAccount",
      "type": "error"
    },
    {
      "inputs": [
        {
          "internalType": "string",
          "name": "serialNumber",
          "type": "string"
        }
      ],
      "name": "SerialNumberAlreadyUsed",
      "type": "error"
    },
    {
      "anonymous": false,
      "inputs": [
        {
          "indexed": true,
          "internalType": "address",
          "name": "owner",
          "type": "address"
        },
        {
          "indexed": true,
          "internalType": "address",
          "name": "approved",
          "type": "address"
        },
        {
          "indexed": true,
          "internalType": "uint256",
          "name": "tokenId",
          "type": "uint256"
        }
      ],
      "name": "Approval",
      "type": "event"
    },
    {
      "anonymous": false,
      "inputs": [
        {
          "indexed": true,
          "internalType": "address",
          "name": "owner",
          "type": "address"
        },
        {
          "indexed": true,
          "internalType": "address",
          "name": "operator",
          "type": "address"
        },
        {
          "indexed": false,
          "internalType": "bool",
          "name": "approved",
          "type": "bool"
        }
      ],
      "name": "ApprovalForAll",
      "type": "event"
    },
    {
      "anonymous": false,
      "inputs": [
        {
          "indexed": false,
          "internalType": "uint256",
          "name": "_fromTokenId",
          "type": "uint256"
        },
        {
          "indexed": false,
          "internalType": "uint256",
          "name": "_toTokenId",
          "type": "uint256"
        }
      ],
      "name": "BatchMetadataUpdate",
      "type": "event"
    },
    {
      "anonymous": false,
      "inputs": [
        {
          "indexed": false,
          "internalType": "uint256",
          "name": "_tokenId",
          "type": "uint256"
        }
      ],
      "name": "MetadataUpdate",
      "type": "event"
    },
    {
      "anonymous": false,
      "inputs": [
        {
          "indexed": true,
          "internalType": "address",
          "name": "previousOwner",
          "type": "address"
        },
        {
          "indexed": true,
          "internalType": "address",
          "name": "newOwner",
          "type": "address"
        }
      ],
      "name": "OwnershipTransferred",
      "type": "event"
    },
    {
      "anonymous": false,
      "inputs": [
        {
          "indexed": true,
          "internalType": "address",
          "name": "from",
          "type": "address"
        },
        {
          "indexed": true,
          "internalType": "address",
          "name": "to",
          "type": "address"
        },
        {
          "indexed": true,
          "internalType": "uint256",
          "name": "tokenId",
          "type": "uint256"
        }
      ],
      "name": "Transfer",
      "type": "event"
    },
    {
      "inputs": [
        {
          "internalType": "address",
          "name": "to",
          "type": "address"
        },
        {
          "internalType": "uint256",
          "name": "tokenId",
          "type": "uint256"
        }
      ],
      "name": "approve",
      "outputs": [],
      "stateMutability": "nonpayable",
      "type": "function"
    },
    {
      "inputs": [
        {
          "internalType": "address",
          "name": "owner",
          "type": "address"
        }
      ],
      "name": "balanceOf",
      "outputs": [
        {
          "internalType": "uint256",
          "name": "",
          "type": "uint256"
        }
      ],
      "stateMutability": "view",
      "type": "function"
    },
    {
      "inputs": [
        {
          "internalType": "uint256",
          "name": "tokenId",
          "type": "uint256"
        }
      ],
      "name": "getApproved",
      "outputs": [
        {
          "internalType": "address",
          "name": "",
          "type": "address"
        }
      ],
      "stateMutability": "view",
      "type": "function"
    },
    {
      "inputs": [
        {
          "internalType": "uint256",
          "name": "tokenId",
          "type": "uint256"
        }
      ],
      "name": "getName",
      "outputs": [
        {
          "internalType": "string",
          "name": "",
          "type": "string"
        }
      ],
      "stateMutability": "view",
      "type": "function"
    },
    {
      "inputs": [
        {
          "internalType": "uint256",
          "name": "tokenId",
          "type": "uint256"
        }
      ],
      "name": "getOwnershipHistory",
      "outputs": [
        {
          "internalType": "address[]",
          "name": "",
          "type": "address[]"
        }
      ],
      "stateMutability": "view",
      "type": "function"
    },
    {
      "inputs": [
        {
          "internalType": "uint256",
          "name": "tokenId",
          "type": "uint256"
        }
      ],
      "name": "getSerialNumber",
      "outputs": [
        {
          "internalType": "string",
          "name": "",
          "type": "string"
        }
      ],
      "stateMutability": "view",
      "type": "function"
    },
    {
      "inputs": [
        {
          "internalType": "address",
          "name": "owner",
          "type": "address"
        },
        {
          "internalType": "address",
          "name": "operator",
          "type": "address"
        }
      ],
      "name": "isApprovedForAll",
      "outputs": [
        {
          "internalType": "bool",
          "name": "",
          "type": "bool"
        }
      ],
      "stateMutability": "view",
      "type": "function"
    },
    {
      "inputs": [],
      "name": "name",
      "outputs": [
        {
          "internalType": "string",
          "name": "",
          "type": "string"
        }
      ],
      "stateMutability": "view",
      "type": "function"
    },
    {
      "inputs": [],
      "name": "owner",
      "outputs": [
        {
          "internalType": "address",
          "name": "",
          "type": "address"
        }
      ],
      "stateMutability": "view",
      "type": "function"
    },
    {
      "inputs": [
        {
          "internalType": "uint256",
          "name": "tokenId",
          "type": "uint256"
        }
      ],
      "name": "ownerOf",
      "outputs": [
        {
          "internalType": "address",
          "name": "",
          "type": "address"
        }
      ],
      "stateMutability": "view",
      "type": "function"
    },
    {
      "inputs": [],
      "name": "renounceOwnership",
      "outputs": [],
      "stateMutability": "nonpayable",
      "type": "function"
    },
    {
      "inputs": [
        {
          "internalType": "address",
          "name": "to",
          "type": "address"
        },
        {
          "internalType": "string",
          "name": "uri",
          "type": "string"
        },
        {
          "internalType": "string",
          "name": "name",
          "type": "string"
        },
        {
          "internalType": "string",
          "name": "serialNumber",
          "type": "string"
        }
      ],
      "name": "safeMint",
      "outputs": [],
      "stateMutability": "nonpayable",
      "type": "function"
    },
    {
      "inputs": [
        {
          "internalType": "address",
          "name": "from",
          "type": "address"
        },
        {
          "internalType": "address",
          "name": "to",
          "type": "address"
        },
        {
          "internalType": "uint256",
          "name": "tokenId",
          "type": "uint256"
        }
      ],
      "name": "safeTransferFrom",
      "outputs": [],
      "stateMutability": "nonpayable",
      "type": "function"
    },
    {
      "inputs": [
        {
          "internalType": "address",
          "name": "from",
          "type": "address"
        },
        {
          "internalType": "address",
          "name": "to",
          "type": "address"
        },
        {
          "internalType": "uint256",
          "name": "tokenId",
          "type": "uint256"
        },
        {
          "internalType": "bytes",
          "name": "data",
          "type": "bytes"
        }
      ],
      "name": "safeTransferFrom",
      "outputs": [],
      "stateMutability": "nonpayable",
      "type": "function"
    },
    {
      "inputs": [
        {
          "internalType": "address",
          "name": "operator",
          "type": "address"
        },
        {
          "internalType": "bool",
          "name": "approved",
          "type": "bool"
        }
      ],
      "name": "setApprovalForAll",
      "outputs": [],
      "stateMutability": "nonpayable",
      "type": "function"
    },
    {
      "inputs": [
        {
          "internalType": "bytes4",
          "name": "interfaceId",
          "type": "bytes4"
        }
      ],
      "name": "supportsInterface",
      "outputs": [
        {
          "internalType": "bool",
          "name": "",
          "type": "bool"
        }
      ],
      "stateMutability": "view",
      "type": "function"
    },
    {
      "inputs": [],
      "name": "symbol",
      "outputs": [
        {
          "internalType": "string",
          "name": "",
          "type": "string"
        }
      ],
      "stateMutability": "view",
      "type": "function"
    },
    {
      "inputs": [
        {
          "internalType": "uint256",
          "name": "index",
          "type": "uint256"
        }
      ],
      "name": "tokenByIndex",
      "outputs": [
        {
          "internalType": "uint256",
          "name": "",
          "type": "uint256"
        }
      ],
      "stateMutability": "view",
      "type": "function"
    },
    {
      "inputs": [
        {
          "internalType": "address",
          "name": "owner",
          "type": "address"
        },
        {
          "internalType": "uint256",
          "name": "index",
          "type": "uint256"
        }
      ],
      "name": "tokenOfOwnerByIndex",
      "outputs": [
        {
          "internalType": "uint256",
          "name": "",
          "type": "uint256"
        }
      ],
      "stateMutability": "view",
      "type": "function"
    },
    {
      "inputs": [
        {
          "internalType": "uint256",
          "name": "tokenId",
          "type": "uint256"
        }
      ],
      "name": "tokenURI",
      "outputs": [
        {
          "internalType": "string",
          "name": "",
          "type": "string"
        }
      ],
      "stateMutability": "view",
      "type": "function"
    },
    {
      "inputs": [],
      "name": "totalSupply",
      "outputs": [
        {
          "internalType": "uint256",
          "name": "",
          "type": "uint256"
        }
      ],
      "stateMutability": "view",
      "type": "function"
    },
    {
      "inputs": [
        {
          "internalType": "address",
          "name": "from",
          "type": "address"
        },
        {
          "internalType": "address",
          "name": "to",
          "type": "address"
        },
        {
          "internalType": "uint256",
          "name": "tokenId",
          "type": "uint256"
        }
      ],
      "name": "transferFrom",
      "outputs": [],
      "stateMutability": "nonpayable",
      "type": "function"
    },
    {
      "inputs": [
        {
          "internalType": "address",
          "name": "newOwner",
          "type": "address"
        }
      ],
      "name": "transferOwnership",
      "outputs": [],
      "stateMutability": "nonpayable",
      "type": "function"
    }
  ],
  "bytecode": "0x608060405234801562000010575f80fd5b50336040518060400160405280600b81526020017f4469676974616c446565640000000000000000000000000000000000000000008152506040518060400160405280600481526020017f4445454400000000000000000000000000000000000000000000000000000000815250815f90816200008e919062000455565b508060019081620000a0919062000455565b5050505f73ffffffffffffffffffffffffffffffffffffffff168173ffffffffffffffffffffffffffffffffffffffff160362000116575f6040517f1e4fbdf70000000000000000000000000000000000000000000000000000000081526004016200010d91906200057c565b60405180910390fd5b62000127816200012e60201b60201c565b5062000597565b5f600b5f9054906101000a900473ffffffffffffffffffffffffffffffffffffffff16905081600b5f6101000a81548173ffffffffffffffffffffffffffffffffffffffff021916908373ffffffffffffffffffffffffffffffffffffffff1602179055508173ffffffffffffffffffffffffffffffffffffffff168173ffffffffffffffffffffffffffffffffffffffff167f8be0079c531659141344cd1fd0a4f28419497f9722a3daafe3b4186f6b6457e060405160405180910390a35050565b5f81519050919050565b7f4e487b71000000000000000000000000000000000000000000000000000000005f52604160045260245ffd5b7f4e487b71000000000000000000000000000000000000000000000000000000005f52602260045260245ffd5b5f60028204905060018216806200026d57607f821691505b60208210810362000283576200028262000228565b5b50919050565b5f819050815f5260205f209050919050565b5f6020601f8301049050919050565b5f82821b905092915050565b5f60088302620002e77fffffffffffffffffffffffffffffffffffffffffffffffffffffffffffffffff82620002aa565b620002f38683620002aa565b95508019841693508086168417925050509392505050565b5f819050919050565b5f819050919050565b5f6200033d6200033762000331846200030b565b62000314565b6200030b565b9050919050565b5f819050919050565b62000358836200031d565b62000370620003678262000344565b848454620002b6565b825550505050565b5f90565b6200038662000378565b620003938184846200034d565b505050565b5b81811015620003ba57620003ae5f826200037c565b60018101905062000399565b5050565b601f8211156200040957620003d38162000289565b620003de846200029b565b81016020851015620003ee578190505b62000406620003fd856200029b565b83018262000398565b50505b505050565b5f82821c905092915050565b5f6200042b5f19846008026200040e565b1980831691505092915050565b5f6200044583836200041a565b9150826002028217905092915050565b6200046082620001f1565b67ffffffffffffffff8111156200047c576200047b620001fb565b5b62000488825462000255565b62000495828285620003be565b5f60209050601f831160018114620004cb575f8415620004b6578287015190505b620004c2858262000438565b86555062000531565b601f198416620004db8662000289565b5f5b828110156200050457848901518255600182019150602085019450602081019050620004dd565b8683101562000524578489015162000520601f8916826200041a565b8355505b6001600288020188555050505b505050505050565b5f73ffffffffffffffffffffffffffffffffffffffff82169050919050565b5f620005648262000539565b9050919050565b620005768162000558565b82525050565b5f602082019050620005915f8301846200056b565b92915050565b61321580620005a55f395ff3fe608060405234801561000f575f80fd5b506004361061014b575f3560e01c80636b8ff574116100c1578063a22cb4651161007a578063a22cb465146103c1578063b88d4fde146103dd578063c87b56dd146103f9578063e985e9c514610429578063f1dbaccb14610459578063f2fde38b146104895761014b565b80636b8ff574146102eb57806370a082311461031b578063715018a61461034b5780638da5cb5b1461035557806395d89b41146103735780639bd905f8146103915761014b565b806318160ddd1161011357806318160ddd1461020557806323b872dd146102235780632f745c591461023f57806342842e0e1461026f5780634f6ccce71461028b5780636352211e146102bb5761014b565b806301ffc9a71461014f57806303a80dfb1461017f57806306fdde031461019b578063081812fc146101b9578063095ea7b3146101e9575b5f80fd5b610169600480360381019061016491906124f6565b6104a5565b604051610176919061253b565b60405180910390f35b610199600480360381019061019491906126ea565b6104b6565b005b6101a36105dc565b6040516101b0919061281c565b60405180910390f35b6101d360048036038101906101ce919061286f565b61066b565b6040516101e091906128a9565b60405180910390f35b61020360048036038101906101fe91906128c2565b610686565b005b61020d61069c565b60405161021a919061290f565b60405180910390f35b61023d60048036038101906102389190612928565b6106a8565b005b610259600480360381019061025491906128c2565b6107a7565b604051610266919061290f565b60405180910390f35b61028960048036038101906102849190612928565b61084b565b005b6102a560048036038101906102a0919061286f565b61086a565b6040516102b2919061290f565b60405180910390f35b6102d560048036038101906102d0919061286f565b6108dc565b6040516102e291906128a9565b60405180910390f35b6103056004803603810190610300919061286f565b6108ed565b604051610312919061281c565b60405180910390f35b61033560048036038101906103309190612978565b610998565b604051610342919061290f565b60405180910390f35b610353610a4e565b005b61035d610a61565b60405161036a91906128a9565b60405180910390f35b61037b610a89565b604051610388919061281c565b60405180910390f35b6103ab60048036038101906103a6919061286f565b610b19565b6040516103b8919061281c565b60405180910390f35b6103db60048036038101906103d691906129cd565b610bc4565b005b6103f760048036038101906103f29190612aa9565b610bda565b005b610413600480360381019061040e919061286f565b610bff565b604051610420919061281c565b60405180910390f35b610443600480360381019061043e9190612b29565b610c11565b604051610450919061253b565b60405180910390f35b610473600480360381019061046e919061286f565b610c9f565b6040516104809190612c1e565b60405180910390f35b6104a3600480360381019061049e9190612978565b610d45565b005b5f6104af82610dc9565b9050919050565b5f816040516020016104c89190612c78565b604051602081830303815290604052805190602001209050600d5f8281526020019081526020015f205f9054906101000a900460ff161561054057816040517fa9408696000000000000000000000000000000000000000000000000000000008152600401610537919061281c565b60405180910390fd5b5f600c5f81548092919061055390612cbb565b9190505590506001600d5f8481526020019081526020015f205f6101000a81548160ff02191690831515021790555082600e5f8381526020019081526020015f2090816105a09190612efc565b5083600f5f8381526020019081526020015f2090816105bf9190612efc565b506105ca8682610e29565b6105d48186610e46565b505050505050565b60605f80546105ea90612d2f565b80601f016020809104026020016040519081016040528092919081815260200182805461061690612d2f565b80156106615780601f1061063857610100808354040283529160200191610661565b820191905f5260205f20905b81548152906001019060200180831161064457829003601f168201915b5050505050905090565b5f61067582610ea0565b5061067f82610f26565b9050919050565b6106988282610693610f5f565b610f66565b5050565b5f600880549050905090565b5f73ffffffffffffffffffffffffffffffffffffffff168273ffffffffffffffffffffffffffffffffffffffff1603610718575f6040517f64a0ae9200000000000000000000000000000000000000000000000000000000815260040161070f91906128a9565b60405180910390fd5b5f61072b8383610726610f5f565b610f78565b90508373ffffffffffffffffffffffffffffffffffffffff168173ffffffffffffffffffffffffffffffffffffffff16146107a1578382826040517f64283d7b00000000000000000000000000000000000000000000000000000000815260040161079893929190612fcb565b60405180910390fd5b50505050565b5f6107b183610998565b82106107f65782826040517fa57d13dc0000000000000000000000000000000000000000000000000000000081526004016107ed929190613000565b60405180910390fd5b60065f8473ffffffffffffffffffffffffffffffffffffffff1673ffffffffffffffffffffffffffffffffffffffff1681526020019081526020015f205f8381526020019081526020015f2054905092915050565b61086583838360405180602001604052805f815250610bda565b505050565b5f61087361069c565b82106108b8575f826040517fa57d13dc0000000000000000000000000000000000000000000000000000000081526004016108af929190613000565b60405180910390fd5b600882815481106108cc576108cb613027565b5b905f5260205f2001549050919050565b5f6108e682610ea0565b9050919050565b60606108f882610ea0565b50600f5f8381526020019081526020015f20805461091590612d2f565b80601f016020809104026020016040519081016040528092919081815260200182805461094190612d2f565b801561098c5780601f106109635761010080835404028352916020019161098c565b820191905f5260205f20905b81548152906001019060200180831161096f57829003601f168201915b50505050509050919050565b5f8073ffffffffffffffffffffffffffffffffffffffff168273ffffffffffffffffffffffffffffffffffffffff1603610a09575f6040517f89c62b64000000000000000000000000000000000000000000000000000000008152600401610a0091906128a9565b60405180910390fd5b60035f8373ffffffffffffffffffffffffffffffffffffffff1673ffffffffffffffffffffffffffffffffffffffff1681526020019081526020015f20549050919050565b610a56611035565b610a5f5f6110bc565b565b5f600b5f9054906101000a900473ffffffffffffffffffffffffffffffffffffffff16905090565b606060018054610a9890612d2f565b80601f0160208091040260200160405190810160405280929190818152602001828054610ac490612d2f565b8015610b0f5780601f10610ae657610100808354040283529160200191610b0f565b820191905f5260205f20905b815481529060010190602001808311610af257829003601f168201915b5050505050905090565b6060610b2482610ea0565b50600e5f8381526020019081526020015f208054610b4190612d2f565b80601f0160208091040260200160405190810160405280929190818152602001828054610b6d90612d2f565b8015610bb85780601f10610b8f57610100808354040283529160200191610bb8565b820191905f5260205f20905b815481529060010190602001808311610b9b57829003601f168201915b50505050509050919050565b610bd6610bcf610f5f565b838361117f565b5050565b610be58484846106a8565b610bf9610bf0610f5f565b85858585611358565b50505050565b6060610c0a82611504565b9050919050565b5f60055f8473ffffffffffffffffffffffffffffffffffffffff1673ffffffffffffffffffffffffffffffffffffffff1681526020019081526020015f205f8373ffffffffffffffffffffffffffffffffffffffff1673ffffffffffffffffffffffffffffffffffffffff1681526020019081526020015f205f9054906101000a900460ff16905092915050565b6060610caa82610ea0565b5060105f8381526020019081526020015f20805480602002602001604051908101604052809291908181526020018280548015610d3957602002820191905f5260205f20905b815f9054906101000a900473ffffffffffffffffffffffffffffffffffffffff1673ffffffffffffffffffffffffffffffffffffffff1681526020019060010190808311610cf0575b50505050509050919050565b610d4d611035565b5f73ffffffffffffffffffffffffffffffffffffffff168173ffffffffffffffffffffffffffffffffffffffff1603610dbd575f6040517f1e4fbdf7000000000000000000000000000000000000000000000000000000008152600401610db491906128a9565b60405180910390fd5b610dc6816110bc565b50565b5f634906490660e01b7bffffffffffffffffffffffffffffffffffffffffffffffffffffffff1916827bffffffffffffffffffffffffffffffffffffffffffffffffffffffff19161480610e225750610e2182611580565b5b9050919050565b610e42828260405180602001604052805f8152506115f9565b5050565b80600a5f8481526020019081526020015f209081610e649190612efc565b507ff8e1a15aba9398e019f0b49df1a4fde98ee17ae345cb5f6b5e2c27f5033e8ce782604051610e94919061290f565b60405180910390a15050565b5f80610eab8361161c565b90505f73ffffffffffffffffffffffffffffffffffffffff168173ffffffffffffffffffffffffffffffffffffffff1603610f1d57826040517f7e273289000000000000000000000000000000000000000000000000000000008152600401610f14919061290f565b60405180910390fd5b80915050919050565b5f60045f8381526020019081526020015f205f9054906101000a900473ffffffffffffffffffffffffffffffffffffffff169050919050565b5f33905090565b610f738383836001611655565b505050565b5f80610f85858585611814565b90505f73ffffffffffffffffffffffffffffffffffffffff168573ffffffffffffffffffffffffffffffffffffffff161461102a5760105f8581526020019081526020015f2085908060018154018082558091505060019003905f5260205f20015f9091909190916101000a81548173ffffffffffffffffffffffffffffffffffffffff021916908373ffffffffffffffffffffffffffffffffffffffff1602179055505b809150509392505050565b61103d610f5f565b73ffffffffffffffffffffffffffffffffffffffff1661105b610a61565b73ffffffffffffffffffffffffffffffffffffffff16146110ba5761107e610f5f565b6040517f118cdaa70000000000000000000000000000000000000000000000000000000081526004016110b191906128a9565b60405180910390fd5b565b5f600b5f9054906101000a900473ffffffffffffffffffffffffffffffffffffffff16905081600b5f6101000a81548173ffffffffffffffffffffffffffffffffffffffff021916908373ffffffffffffffffffffffffffffffffffffffff1602179055508173ffffffffffffffffffffffffffffffffffffffff168173ffffffffffffffffffffffffffffffffffffffff167f8be0079c531659141344cd1fd0a4f28419497f9722a3daafe3b4186f6b6457e060405160405180910390a35050565b5f73ffffffffffffffffffffffffffffffffffffffff168373ffffffffffffffffffffffffffffffffffffffff16036111ef575f6040517fa9fbf51f0000000000000000000000000000000000000000000000000000000081526004016111e691906128a9565b60405180910390fd5b5f73ffffffffffffffffffffffffffffffffffffffff168273ffffffffffffffffffffffffffffffffffffffff160361125f57816040517f5b08ba1800000000000000000000000000000000000000000000000000000000815260040161125691906128a9565b60405180910390fd5b8060055f8573ffffffffffffffffffffffffffffffffffffffff1673ffffffffffffffffffffffffffffffffffffffff1681526020019081526020015f205f8473ffffffffffffffffffffffffffffffffffffffff1673ffffffffffffffffffffffffffffffffffffffff1681526020019081526020015f205f6101000a81548160ff0219169083151502179055508173ffffffffffffffffffffffffffffffffffffffff168373ffffffffffffffffffffffffffffffffffffffff167f17307eab39ab6107e8899845ad3d59bd9653f200f220920489ca2b5937696c318360405161134b919061253b565b60405180910390a3505050565b5f8373ffffffffffffffffffffffffffffffffffffffff163b11156114fd578273ffffffffffffffffffffffffffffffffffffffff1663150b7a02868685856040518563ffffffff1660e01b81526004016113b694939291906130a6565b6020604051808303815f875af19250505080156113f157506040513d601f19601f820116820180604052508101906113ee9190613104565b60015b611472573d805f811461141f576040519150601f19603f3d011682016040523d82523d5f602084013e611424565b606091505b505f81510361146a57836040517f64a0ae9200000000000000000000000000000000000000000000000000000000815260040161146191906128a9565b60405180910390fd5b805160208201fd5b63150b7a0260e01b7bffffffffffffffffffffffffffffffffffffffffffffffffffffffff1916817bffffffffffffffffffffffffffffffffffffffffffffffffffffffff1916146114fb57836040517f64a0ae920000000000000000000000000000000000000000000000000000000081526004016114f291906128a9565b60405180910390fd5b505b5050505050565b606061150f82610ea0565b505f61151961192e565b90505f61152584611944565b90505f82510361153957809250505061157b565b5f8151111561156d57818160405160200161155592919061312f565b6040516020818303038152906040529250505061157b565b611576846119e5565b925050505b919050565b5f7f780e9d63000000000000000000000000000000000000000000000000000000007bffffffffffffffffffffffffffffffffffffffffffffffffffffffff1916827bffffffffffffffffffffffffffffffffffffffffffffffffffffffff191614806115f257506115f182611a4b565b5b9050919050565b6116038383611b2c565b61161761160e610f5f565b5f858585611358565b505050565b5f60025f8381526020019081526020015f205f9054906101000a900473ffffffffffffffffffffffffffffffffffffffff169050919050565b808061168d57505f73ffffffffffffffffffffffffffffffffffffffff168273ffffffffffffffffffffffffffffffffffffffff1614155b156117bf575f61169c84610ea0565b90505f73ffffffffffffffffffffffffffffffffffffffff168373ffffffffffffffffffffffffffffffffffffffff161415801561170657508273ffffffffffffffffffffffffffffffffffffffff168173ffffffffffffffffffffffffffffffffffffffff1614155b801561171957506117178184610c11565b155b1561175b57826040517fa9fbf51f00000000000000000000000000000000000000000000000000000000815260040161175291906128a9565b60405180910390fd5b81156117bd57838573ffffffffffffffffffffffffffffffffffffffff168273ffffffffffffffffffffffffffffffffffffffff167f8c5be1e5ebec7d5bd14f71427d1e84f3dd0314c0f7b2291e5b200ac8c7c3b92560405160405180910390a45b505b8360045f8581526020019081526020015f205f6101000a81548173ffffffffffffffffffffffffffffffffffffffff021916908373ffffffffffffffffffffffffffffffffffffffff16021790555050505050565b5f80611821858585611c1f565b90505f73ffffffffffffffffffffffffffffffffffffffff168173ffffffffffffffffffffffffffffffffffffffff16036118645761185f84611e2a565b6118a3565b8473ffffffffffffffffffffffffffffffffffffffff168173ffffffffffffffffffffffffffffffffffffffff16146118a2576118a18185611e6e565b5b5b5f73ffffffffffffffffffffffffffffffffffffffff168573ffffffffffffffffffffffffffffffffffffffff16036118e4576118df84611f45565b611923565b8473ffffffffffffffffffffffffffffffffffffffff168173ffffffffffffffffffffffffffffffffffffffff1614611922576119218585612005565b5b5b809150509392505050565b606060405180602001604052805f815250905090565b6060600a5f8381526020019081526020015f20805461196290612d2f565b80601f016020809104026020016040519081016040528092919081815260200182805461198e90612d2f565b80156119d95780601f106119b0576101008083540402835291602001916119d9565b820191905f5260205f20905b8154815290600101906020018083116119bc57829003601f168201915b50505050509050919050565b60606119f082610ea0565b505f6119fa61192e565b90505f815111611a185760405180602001604052805f815250611a43565b80611a2284612089565b604051602001611a3392919061312f565b6040516020818303038152906040525b915050919050565b5f7f80ac58cd000000000000000000000000000000000000000000000000000000007bffffffffffffffffffffffffffffffffffffffffffffffffffffffff1916827bffffffffffffffffffffffffffffffffffffffffffffffffffffffff19161480611b1557507f5b5e139f000000000000000000000000000000000000000000000000000000007bffffffffffffffffffffffffffffffffffffffffffffffffffffffff1916827bffffffffffffffffffffffffffffffffffffffffffffffffffffffff1916145b80611b255750611b2482612153565b5b9050919050565b5f73ffffffffffffffffffffffffffffffffffffffff168273ffffffffffffffffffffffffffffffffffffffff1603611b9c575f6040517f64a0ae92000000000000000000000000000000000000000000000000000000008152600401611b9391906128a9565b60405180910390fd5b5f611ba883835f610f78565b90505f73ffffffffffffffffffffffffffffffffffffffff168173ffffffffffffffffffffffffffffffffffffffff1614611c1a575f6040517f73c6ac6e000000000000000000000000000000000000000000000000000000008152600401611c1191906128a9565b60405180910390fd5b505050565b5f80611c2a8461161c565b90505f73ffffffffffffffffffffffffffffffffffffffff168373ffffffffffffffffffffffffffffffffffffffff1614611c6b57611c6a8184866121bc565b5b5f73ffffffffffffffffffffffffffffffffffffffff168173ffffffffffffffffffffffffffffffffffffffff1614611cf657611caa5f855f80611655565b600160035f8373ffffffffffffffffffffffffffffffffffffffff1673ffffffffffffffffffffffffffffffffffffffff1681526020019081526020015f205f82825403925050819055505b5f73ffffffffffffffffffffffffffffffffffffffff168573ffffffffffffffffffffffffffffffffffffffff1614611d7557600160035f8773ffffffffffffffffffffffffffffffffffffffff1673ffffffffffffffffffffffffffffffffffffffff1681526020019081526020015f205f82825401925050819055505b8460025f8681526020019081526020015f205f6101000a81548173ffffffffffffffffffffffffffffffffffffffff021916908373ffffffffffffffffffffffffffffffffffffffff160217905550838573ffffffffffffffffffffffffffffffffffffffff168273ffffffffffffffffffffffffffffffffffffffff167fddf252ad1be2c89b69c2b068fc378daa952ba7f163c4a11628f55a4df523b3ef60405160405180910390a4809150509392505050565b60088054905060095f8381526020019081526020015f2081905550600881908060018154018082558091505060019003905f5260205f20015f909190919091505550565b5f611e7883610998565b90505f60075f8481526020019081526020015f205490505f60065f8673ffffffffffffffffffffffffffffffffffffffff1673ffffffffffffffffffffffffffffffffffffffff1681526020019081526020015f209050828214611f17575f815f8581526020019081526020015f2054905080825f8581526020019081526020015f20819055508260075f8381526020019081526020015f2081905550505b60075f8581526020019081526020015f205f9055805f8481526020019081526020015f205f90555050505050565b5f6001600880549050611f589190613152565b90505f60095f8481526020019081526020015f205490505f60088381548110611f8457611f83613027565b5b905f5260205f20015490508060088381548110611fa457611fa3613027565b5b905f5260205f2001819055508160095f8381526020019081526020015f208190555060095f8581526020019081526020015f205f90556008805480611fec57611feb613185565b5b600190038181905f5260205f20015f9055905550505050565b5f600161201184610998565b61201b9190613152565b90508160065f8573ffffffffffffffffffffffffffffffffffffffff1673ffffffffffffffffffffffffffffffffffffffff1681526020019081526020015f205f8381526020019081526020015f20819055508060075f8481526020019081526020015f2081905550505050565b60605f60016120978461227f565b0190505f8167ffffffffffffffff8111156120b5576120b46125c6565b5b6040519080825280601f01601f1916602001820160405280156120e75781602001600182028036833780820191505090505b5090505f82602083010190505b600115612148578080600190039150507f3031323334353637383961626364656600000000000000000000000000000000600a86061a8153600a858161213d5761213c6131b2565b5b0494505f85036120f4575b819350505050919050565b5f7f01ffc9a7000000000000000000000000000000000000000000000000000000007bffffffffffffffffffffffffffffffffffffffffffffffffffffffff1916827bffffffffffffffffffffffffffffffffffffffffffffffffffffffff1916149050919050565b6121c78383836123d0565b61227a575f73ffffffffffffffffffffffffffffffffffffffff168373ffffffffffffffffffffffffffffffffffffffff160361223b57806040517f7e273289000000000000000000000000000000000000000000000000000000008152600401612232919061290f565b60405180910390fd5b81816040517f177e802f000000000000000000000000000000000000000000000000000000008152600401612271929190613000565b60405180910390fd5b505050565b5f805f90507a184f03e93ff9f4daa797ed6e38ed64bf6a1f01000000000000000083106122db577a184f03e93ff9f4daa797ed6e38ed64bf6a1f01000000000000000083816122d1576122d06131b2565b5b0492506040810190505b6d04ee2d6d415b85acef81000000008310612318576d04ee2d6d415b85acef8100000000838161230e5761230d6131b2565b5b0492506020810190505b662386f26fc10000831061234757662386f26fc10000838161233d5761233c6131b2565b5b0492506010810190505b6305f5e1008310612370576305f5e1008381612366576123656131b2565b5b0492506008810190505b612710831061239557612710838161238b5761238a6131b2565b5b0492506004810190505b606483106123b857606483816123ae576123ad6131b2565b5b0492506002810190505b600a83106123c7576001810190505b80915050919050565b5f8073ffffffffffffffffffffffffffffffffffffffff168373ffffffffffffffffffffffffffffffffffffffff161415801561248757508273ffffffffffffffffffffffffffffffffffffffff168473ffffffffffffffffffffffffffffffffffffffff16148061244857506124478484610c11565b5b8061248657508273ffffffffffffffffffffffffffffffffffffffff1661246e83610f26565b73ffffffffffffffffffffffffffffffffffffffff16145b5b90509392505050565b5f604051905090565b5f80fd5b5f80fd5b5f7fffffffff0000000000000000000000000000000000000000000000000000000082169050919050565b6124d5816124a1565b81146124df575f80fd5b50565b5f813590506124f0816124cc565b92915050565b5f6020828403121561250b5761250a612499565b5b5f612518848285016124e2565b91505092915050565b5f8115159050919050565b61253581612521565b82525050565b5f60208201905061254e5f83018461252c565b92915050565b5f73ffffffffffffffffffffffffffffffffffffffff82169050919050565b5f61257d82612554565b9050919050565b61258d81612573565b8114612597575f80fd5b50565b5f813590506125a881612584565b92915050565b5f80fd5b5f80fd5b5f601f19601f8301169050919050565b7f4e487b71000000000000000000000000000000000000000000000000000000005f52604160045260245ffd5b6125fc826125b6565b810181811067ffffffffffffffff8211171561261b5761261a6125c6565b5b80604052505050565b5f61262d612490565b905061263982826125f3565b919050565b5f67ffffffffffffffff821115612658576126576125c6565b5b612661826125b6565b9050602081019050919050565b828183375f83830152505050565b5f61268e6126898461263e565b612624565b9050828152602081018484840111156126aa576126a96125b2565b5b6126b584828561266e565b509392505050565b5f82601f8301126126d1576126d06125ae565b5b81356126e184826020860161267c565b91505092915050565b5f805f806080858703121561270257612701612499565b5b5f61270f8782880161259a565b945050602085013567ffffffffffffffff8111156127305761272f61249d565b5b61273c878288016126bd565b935050604085013567ffffffffffffffff81111561275d5761275c61249d565b5b612769878288016126bd565b925050606085013567ffffffffffffffff81111561278a5761278961249d565b5b612796878288016126bd565b91505092959194509250565b5f81519050919050565b5f82825260208201905092915050565b5f5b838110156127d95780820151818401526020810190506127be565b5f8484015250505050565b5f6127ee826127a2565b6127f881856127ac565b93506128088185602086016127bc565b612811816125b6565b840191505092915050565b5f6020820190508181035f83015261283481846127e4565b905092915050565b5f819050919050565b61284e8161283c565b8114612858575f80fd5b50565b5f8135905061286981612845565b92915050565b5f6020828403121561288457612883612499565b5b5f6128918482850161285b565b91505092915050565b6128a381612573565b82525050565b5f6020820190506128bc5f83018461289a565b92915050565b5f80604083850312156128d8576128d7612499565b5b5f6128e58582860161259a565b92505060206128f68582860161285b565b9150509250929050565b6129098161283c565b82525050565b5f6020820190506129225f830184612900565b92915050565b5f805f6060848603121561293f5761293e612499565b5b5f61294c8682870161259a565b935050602061295d8682870161259a565b925050604061296e8682870161285b565b9150509250925092565b5f6020828403121561298d5761298c612499565b5b5f61299a8482850161259a565b91505092915050565b6129ac81612521565b81146129b6575f80fd5b50565b5f813590506129c7816129a3565b92915050565b5f80604083850312156129e3576129e2612499565b5b5f6129f08582860161259a565b9250506020612a01858286016129b9565b9150509250929050565b5f67ffffffffffffffff821115612a2557612a246125c6565b5b612a2e826125b6565b9050602081019050919050565b5f612a4d612a4884612a0b565b612624565b905082815260208101848484011115612a6957612a686125b2565b5b612a7484828561266e565b509392505050565b5f82601f830112612a9057612a8f6125ae565b5b8135612aa0848260208601612a3b565b91505092915050565b5f805f8060808587031215612ac157612ac0612499565b5b5f612ace8782880161259a565b9450506020612adf8782880161259a565b9350506040612af08782880161285b565b925050606085013567ffffffffffffffff811115612b1157612b1061249d565b5b612b1d87828801612a7c565b91505092959194509250565b5f8060408385031215612b3f57612b3e612499565b5b5f612b4c8582860161259a565b9250506020612b5d8582860161259a565b9150509250929050565b5f81519050919050565b5f82825260208201905092915050565b5f819050602082019050919050565b612b9981612573565b82525050565b5f612baa8383612b90565b60208301905092915050565b5f602082019050919050565b5f612bcc82612b67565b612bd68185612b71565b9350612be183612b81565b805f5b83811015612c11578151612bf88882612b9f565b9750612c0383612bb6565b925050600181019050612be4565b5085935050505092915050565b5f6020820190508181035f830152612c368184612bc2565b905092915050565b5f81905092915050565b5f612c52826127a2565b612c5c8185612c3e565b9350612c6c8185602086016127bc565b80840191505092915050565b5f612c838284612c48565b915081905092915050565b7f4e487b71000000000000000000000000000000000000000000000000000000005f52601160045260245ffd5b5f612cc58261283c565b91507fffffffffffffffffffffffffffffffffffffffffffffffffffffffffffffffff8203612cf757612cf6612c8e565b5b600182019050919050565b7f4e487b71000000000000000000000000000000000000000000000000000000005f52602260045260245ffd5b5f6002820490506001821680612d4657607f821691505b602082108103612d5957612d58612d02565b5b50919050565b5f819050815f5260205f209050919050565b5f6020601f8301049050919050565b5f82821b905092915050565b5f60088302612dbb7fffffffffffffffffffffffffffffffffffffffffffffffffffffffffffffffff82612d80565b612dc58683612d80565b95508019841693508086168417925050509392505050565b5f819050919050565b5f612e00612dfb612df68461283c565b612ddd565b61283c565b9050919050565b5f819050919050565b612e1983612de6565b612e2d612e2582612e07565b848454612d8c565b825550505050565b5f90565b612e41612e35565b612e4c818484612e10565b505050565b5b81811015612e6f57612e645f82612e39565b600181019050612e52565b5050565b601f821115612eb457612e8581612d5f565b612e8e84612d71565b81016020851015612e9d578190505b612eb1612ea985612d71565b830182612e51565b50505b505050565b5f82821c905092915050565b5f612ed45f1984600802612eb9565b1980831691505092915050565b5f612eec8383612ec5565b9150826002028217905092915050565b612f05826127a2565b67ffffffffffffffff811115612f1e57612f1d6125c6565b5b612f288254612d2f565b612f33828285612e73565b5f60209050601f831160018114612f64575f8415612f52578287015190505b612f5c8582612ee1565b865550612fc3565b601f198416612f7286612d5f565b5f5b82811015612f9957848901518255600182019150602085019450602081019050612f74565b86831015612fb65784890151612fb2601f891682612ec5565b8355505b6001600288020188555050505b505050505050565b5f606082019050612fde5f83018661289a565b612feb6020830185612900565b612ff8604083018461289a565b949350505050565b5f6040820190506130135f83018561289a565b6130206020830184612900565b9392505050565b7f4e487b71000000000000000000000000000000000000000000000000000000005f52603260045260245ffd5b5f81519050919050565b5f82825260208201905092915050565b5f61307882613054565b613082818561305e565b93506130928185602086016127bc565b61309b816125b6565b840191505092915050565b5f6080820190506130b95f83018761289a565b6130c6602083018661289a565b6130d36040830185612900565b81810360608301526130e5818461306e565b905095945050505050565b5f815190506130fe816124cc565b92915050565b5f6020828403121561311957613118612499565b5b5f613126848285016130f0565b91505092915050565b5f61313a8285612c48565b91506131468284612c48565b91508190509392505050565b5f61315c8261283c565b91506131678361283c565b925082820390508181111561317f5761317e612c8e565b5b92915050565b7f4e487b71000000000000000000000000000000000000000000000000000000005f52603160045260245ffd5b7f4e487b71000000000000000000000000000000000000000000000000000000005f52601260045260245ffdfea2646970667358221220874d18580140691f7d70b56d044de9eeb7b527ca5d93c6bef0b0d3040c2c171564736f6c63430008180033",
  "linkReferences": {},
  "deployedLinkReferences": {}
}