{
  "_format": "hh-sol-artifact-1",
  "contractName": "DigitalDeed",
  "sourceName": "contracts/DigitalDeed.sol",
  "abi": [
    {
      "inputs": [],
      "stateMutability": "nonpayable",
      "type": "constructor"
    },
    {
      "inputs": [],
      "name": "ERC721EnumerableForbiddenBatchMint",
      "type": "error"
    },
    {
      "inputs": [
        {
          "internalType": "address",
          "name": "sender",
          "type": "address"
        },
        {
          "internalType": "uint256",
          "name": "tokenId",
          "type": "uint256"
        },
        {
          "internalType": "address",
          "name": "owner",
          "type": "address"
        }
      ],
      "name": "ERC721IncorrectOwner",
      "type": "error"
    },
    {
      "inputs": [
        {
          "internalType": "address",
          "name": "operator",
          "type": "address"
        },
        {
          "internalType": "uint256",
          "name": "tokenId",
          "type": "uint256"
        }
      ],
      "name": "ERC721InsufficientApproval",
      "type": "error"
    },
    {
      "inputs": [
        {
          "internalType": "address",
          "name": "approver",
          "type": "address"
        }
      ],
      "name": "ERC721InvalidApprover",
      "type": "error"
    },
    {
      "inputs": [
        {
          "internalType": "address",
          "name": "operator",
          "type": "address"
        }
      ],
      "name": "ERC721InvalidOperator",
      "type": "error"
    },
    {
      "inputs": [
        {
          "internalType": "address",
          "name": "owner",
          "type": "address"
        }
      ],
      "name": "ERC721InvalidOwner",
      "type": "error"
    },
    {
      "inputs": [
        {
          "internalType": "address",
          "name": "receiver",
          "type": "address"
        }
      ],
      "name": "ERC721InvalidReceiver",
      "type": "error"
    },
    {
      "inputs": [
        {
          "internalType": "address",
          "name": "sender",
          "type": "address"
        }
      ],
      "name": "ERC721InvalidSender",
      "type": "error"
    },
    {
      "inputs": [
        {
          "internalType": "uint256",
          "name": "tokenId",
          "type": "uint256"
        }
      ],
      "name": "ERC721NonexistentToken",
      "type": "error"
    },
    {
      "inputs": [
        {
          "internalType": "address",
          "name": "owner",
          "type": "address"
        },
        {
          "internalType": "uint256",
          "name": "index",
          "type": "uint256"
        }
      ],
      "name": "ERC721OutOfBoundsIndex",
      "type": "error"
    },
    {
      "inputs": [
        {
          "internalType": "address",
          "name": "owner",
          "type": "address"
        }
      ],
      "name": "OwnableInvalidOwner",
      "type": "error"
    },
    {
      "inputs": [
        {
          "internalType": "address",
          "name": "account",
          "type": "address"
        }
      ],
      "name": "OwnableUnauthorizedAccount",
      "type": "error"
    },
    {
      "inputs": [
        {
          "internalType": "string",
          "name": "serialNumber",
          "type": "string"
        }
      ],
      "name": "SerialNumberAlreadyUsed",
      "type": "error"
    },
    {
      "anonymous": false,
      "inputs": [
        {
          "indexed": true,
          "internalType": "address",
          "name": "owner",
          "type": "address"
        },
        {
          "indexed": true,
          "internalType": "address",
          "name": "approved",
          "type": "address"
        },
        {
          "indexed": true,
          "internalType": "uint256",
          "name": "tokenId",
          "type": "uint256"
        }
      ],
      "name": "Approval",
      "type": "event"
    },
    {
      "anonymous": false,
      "inputs": [
        {
          "indexed": true,
          "internalType": "address",
          "name": "owner",
          "type": "address"
        },
        {
          "indexed": true,
          "internalType": "address",
          "name": "operator",
          "type": "address"
        },
        {
          "indexed": false,
          "internalType": "bool",
          "name": "approved",
          "type": "bool"
        }
      ],
      "name": "ApprovalForAll",
      "type": "event"
    },
    {
      "anonymous": false,
      "inputs": [
        {
          "indexed": false,
          "internalType": "uint256",
          "name": "_fromTokenId",
          "type": "uint256"
        },
        {
          "indexed": false,
          "internalType": "uint256",
          "name": "_toTokenId",
          "type": "uint256"
        }
      ],
      "name": "BatchMetadataUpdate",
      "type": "event"
    },
    {
      "anonymous": false,
      "inputs": [
        {
          "indexed": false,
          "internalType": "uint256",
          "name": "_tokenId",
          "type": "uint256"
        }
      ],
      "name": "MetadataUpdate",
      "type": "event"
    },
    {
      "anonymous": false,
      "inputs": [
        {
          "indexed": true,
          "internalType": "address",
          "name": "previousOwner",
          "type": "address"
        },
        {
          "indexed": true,
          "internalType": "address",
          "name": "newOwner",
          "type": "address"
        }
      ],
      "name": "OwnershipTransferred",
      "type": "event"
    },
    {
      "anonymous": false,
      "inputs": [
        {
          "indexed": true,
          "internalType": "address",
          "name": "from",
          "type": "address"
        },
        {
          "indexed": true,
          "internalType": "address",
          "name": "to",
          "type": "address"
        },
        {
          "indexed": true,
          "internalType": "uint256",
          "name": "tokenId",
          "type": "uint256"
        }
      ],
      "name": "Transfer",
      "type": "event"
    },
    {
      "inputs": [
        {
          "internalType": "address",
          "name": "to",
          "type": "address"
        },
        {
          "internalType": "uint256",
          "name": "tokenId",
          "type": "uint256"
        }
      ],
      "name": "approve",
      "outputs": [],
      "stateMutability": "nonpayable",
      "type": "function"
    },
    {
      "inputs": [
        {
          "internalType": "address",
          "name": "owner",
          "type": "address"
        }
      ],
      "name": "balanceOf",
      "outputs": [
        {
          "internalType": "uint256",
          "name": "",
          "type": "uint256"
        }
      ],
      "stateMutability": "view",
      "type": "function"
    },
    {
      "inputs": [
        {
          "internalType": "uint256",
          "name": "tokenId",
          "type": "uint256"
        }
      ],
      "name": "getApproved",
      "outputs": [
        {
          "internalType": "address",
          "name": "",
          "type": "address"
        }
      ],
      "stateMutability": "view",
      "type": "function"
    },
    {
      "inputs": [
        {
          "internalType": "uint256",
          "name": "tokenId",
          "type": "uint256"
        }
      ],
      "name": "getSerialNumber",
      "outputs": [
        {
          "internalType": "string",
          "name": "",
          "type": "string"
        }
      ],
      "stateMutability": "view",
      "type": "function"
    },
    {
      "inputs": [
        {
          "internalType": "address",
          "name": "owner",
          "type": "address"
        },
        {
          "internalType": "address",
          "name": "operator",
          "type": "address"
        }
      ],
      "name": "isApprovedForAll",
      "outputs": [
        {
          "internalType": "bool",
          "name": "",
          "type": "bool"
        }
      ],
      "stateMutability": "view",
      "type": "function"
    },
    {
      "inputs": [],
      "name": "name",
      "outputs": [
        {
          "internalType": "string",
          "name": "",
          "type": "string"
        }
      ],
      "stateMutability": "view",
      "type": "function"
    },
    {
      "inputs": [],
      "name": "owner",
      "outputs": [
        {
          "internalType": "address",
          "name": "",
          "type": "address"
        }
      ],
      "stateMutability": "view",
      "type": "function"
    },
    {
      "inputs": [
        {
          "internalType": "uint256",
          "name": "tokenId",
          "type": "uint256"
        }
      ],
      "name": "ownerOf",
      "outputs": [
        {
          "internalType": "address",
          "name": "",
          "type": "address"
        }
      ],
      "stateMutability": "view",
      "type": "function"
    },
    {
      "inputs": [],
      "name": "renounceOwnership",
      "outputs": [],
      "stateMutability": "nonpayable",
      "type": "function"
    },
    {
      "inputs": [
        {
          "internalType": "address",
          "name": "to",
          "type": "address"
        },
        {
          "internalType": "string",
          "name": "uri",
          "type": "string"
        },
        {
          "internalType": "string",
          "name": "serialNumber",
          "type": "string"
        }
      ],
      "name": "safeMint",
      "outputs": [],
      "stateMutability": "nonpayable",
      "type": "function"
    },
    {
      "inputs": [
        {
          "internalType": "address",
          "name": "from",
          "type": "address"
        },
        {
          "internalType": "address",
          "name": "to",
          "type": "address"
        },
        {
          "internalType": "uint256",
          "name": "tokenId",
          "type": "uint256"
        }
      ],
      "name": "safeTransferFrom",
      "outputs": [],
      "stateMutability": "nonpayable",
      "type": "function"
    },
    {
      "inputs": [
        {
          "internalType": "address",
          "name": "from",
          "type": "address"
        },
        {
          "internalType": "address",
          "name": "to",
          "type": "address"
        },
        {
          "internalType": "uint256",
          "name": "tokenId",
          "type": "uint256"
        },
        {
          "internalType": "bytes",
          "name": "data",
          "type": "bytes"
        }
      ],
      "name": "safeTransferFrom",
      "outputs": [],
      "stateMutability": "nonpayable",
      "type": "function"
    },
    {
      "inputs": [
        {
          "internalType": "address",
          "name": "operator",
          "type": "address"
        },
        {
          "internalType": "bool",
          "name": "approved",
          "type": "bool"
        }
      ],
      "name": "setApprovalForAll",
      "outputs": [],
      "stateMutability": "nonpayable",
      "type": "function"
    },
    {
      "inputs": [
        {
          "internalType": "bytes4",
          "name": "interfaceId",
          "type": "bytes4"
        }
      ],
      "name": "supportsInterface",
      "outputs": [
        {
          "internalType": "bool",
          "name": "",
          "type": "bool"
        }
      ],
      "stateMutability": "view",
      "type": "function"
    },
    {
      "inputs": [],
      "name": "symbol",
      "outputs": [
        {
          "internalType": "string",
          "name": "",
          "type": "string"
        }
      ],
      "stateMutability": "view",
      "type": "function"
    },
    {
      "inputs": [
        {
          "internalType": "uint256",
          "name": "index",
          "type": "uint256"
        }
      ],
      "name": "tokenByIndex",
      "outputs": [
        {
          "internalType": "uint256",
          "name": "",
          "type": "uint256"
        }
      ],
      "stateMutability": "view",
      "type": "function"
    },
    {
      "inputs": [
        {
          "internalType": "address",
          "name": "owner",
          "type": "address"
        },
        {
          "internalType": "uint256",
          "name": "index",
          "type": "uint256"
        }
      ],
      "name": "tokenOfOwnerByIndex",
      "outputs": [
        {
          "internalType": "uint256",
          "name": "",
          "type": "uint256"
        }
      ],
      "stateMutability": "view",
      "type": "function"
    },
    {
      "inputs": [
        {
          "internalType": "uint256",
          "name": "tokenId",
          "type": "uint256"
        }
      ],
      "name": "tokenURI",
      "outputs": [
        {
          "internalType": "string",
          "name": "",
          "type": "string"
        }
      ],
      "stateMutability": "view",
      "type": "function"
    },
    {
      "inputs": [],
      "name": "totalSupply",
      "outputs": [
        {
          "internalType": "uint256",
          "name": "",
          "type": "uint256"
        }
      ],
      "stateMutability": "view",
      "type": "function"
    },
    {
      "inputs": [
        {
          "internalType": "address",
          "name": "from",
          "type": "address"
        },
        {
          "internalType": "address",
          "name": "to",
          "type": "address"
        },
        {
          "internalType": "uint256",
          "name": "tokenId",
          "type": "uint256"
        }
      ],
      "name": "transferFrom",
      "outputs": [],
      "stateMutability": "nonpayable",
      "type": "function"
    },
    {
      "inputs": [
        {
          "internalType": "address",
          "name": "newOwner",
          "type": "address"
        }
      ],
      "name": "transferOwnership",
      "outputs": [],
      "stateMutability": "nonpayable",
      "type": "function"
    }
  ],
  "bytecode": "0x608060405234801562000010575f80fd5b50336040518060400160405280600b81526020017f4469676974616c446565640000000000000000000000000000000000000000008152506040518060400160405280600481526020017f4445454400000000000000000000000000000000000000000000000000000000815250815f90816200008e919062000455565b508060019081620000a0919062000455565b5050505f73ffffffffffffffffffffffffffffffffffffffff168173ffffffffffffffffffffffffffffffffffffffff160362000116575f6040517f1e4fbdf70000000000000000000000000000000000000000000000000000000081526004016200010d91906200057c565b60405180910390fd5b62000127816200012e60201b60201c565b5062000597565b5f600b5f9054906101000a900473ffffffffffffffffffffffffffffffffffffffff16905081600b5f6101000a81548173ffffffffffffffffffffffffffffffffffffffff021916908373ffffffffffffffffffffffffffffffffffffffff1602179055508173ffffffffffffffffffffffffffffffffffffffff168173ffffffffffffffffffffffffffffffffffffffff167f8be0079c531659141344cd1fd0a4f28419497f9722a3daafe3b4186f6b6457e060405160405180910390a35050565b5f81519050919050565b7f4e487b71000000000000000000000000000000000000000000000000000000005f52604160045260245ffd5b7f4e487b71000000000000000000000000000000000000000000000000000000005f52602260045260245ffd5b5f60028204905060018216806200026d57607f821691505b60208210810362000283576200028262000228565b5b50919050565b5f819050815f5260205f209050919050565b5f6020601f8301049050919050565b5f82821b905092915050565b5f60088302620002e77fffffffffffffffffffffffffffffffffffffffffffffffffffffffffffffffff82620002aa565b620002f38683620002aa565b95508019841693508086168417925050509392505050565b5f819050919050565b5f819050919050565b5f6200033d6200033762000331846200030b565b62000314565b6200030b565b9050919050565b5f819050919050565b62000358836200031d565b62000370620003678262000344565b848454620002b6565b825550505050565b5f90565b6200038662000378565b620003938184846200034d565b505050565b5b81811015620003ba57620003ae5f826200037c565b60018101905062000399565b5050565b601f8211156200040957620003d38162000289565b620003de846200029b565b81016020851015620003ee578190505b62000406620003fd856200029b565b83018262000398565b50505b505050565b5f82821c905092915050565b5f6200042b5f19846008026200040e565b1980831691505092915050565b5f6200044583836200041a565b9150826002028217905092915050565b6200046082620001f1565b67ffffffffffffffff8111156200047c576200047b620001fb565b5b62000488825462000255565b62000495828285620003be565b5f60209050601f831160018114620004cb575f8415620004b6578287015190505b620004c2858262000438565b86555062000531565b601f198416620004db8662000289565b5f5b828110156200050457848901518255600182019150602085019450602081019050620004dd565b8683101562000524578489015162000520601f8916826200041a565b8355505b6001600288020188555050505b505050505050565b5f73ffffffffffffffffffffffffffffffffffffffff82169050919050565b5f620005648262000539565b9050919050565b620005768162000558565b82525050565b5f602082019050620005915f8301846200056b565b92915050565b612e7f80620005a55f395ff3fe608060405234801561000f575f80fd5b5060043610610135575f3560e01c806370a08231116100b6578063a22cb4651161007a578063a22cb4651461035f578063b88d4fde1461037b578063c87b56dd14610397578063e985e9c5146103c7578063eca81d42146103f7578063f2fde38b1461041357610135565b806370a08231146102b9578063715018a6146102e95780638da5cb5b146102f357806395d89b41146103115780639bd905f81461032f57610135565b806323b872dd116100fd57806323b872dd146101f15780632f745c591461020d57806342842e0e1461023d5780634f6ccce7146102595780636352211e1461028957610135565b806301ffc9a71461013957806306fdde0314610169578063081812fc14610187578063095ea7b3146101b757806318160ddd146101d3575b5f80fd5b610153600480360381019061014e9190612267565b61042f565b60405161016091906122ac565b60405180910390f35b610171610440565b60405161017e919061234f565b60405180910390f35b6101a1600480360381019061019c91906123a2565b6104cf565b6040516101ae919061240c565b60405180910390f35b6101d160048036038101906101cc919061244f565b6104ea565b005b6101db610500565b6040516101e8919061249c565b60405180910390f35b61020b600480360381019061020691906124b5565b61050c565b005b6102276004803603810190610222919061244f565b61060b565b604051610234919061249c565b60405180910390f35b610257600480360381019061025291906124b5565b6106af565b005b610273600480360381019061026e91906123a2565b6106ce565b604051610280919061249c565b60405180910390f35b6102a3600480360381019061029e91906123a2565b610740565b6040516102b0919061240c565b60405180910390f35b6102d360048036038101906102ce9190612505565b610751565b6040516102e0919061249c565b60405180910390f35b6102f1610807565b005b6102fb61081a565b604051610308919061240c565b60405180910390f35b610319610842565b604051610326919061234f565b60405180910390f35b610349600480360381019061034491906123a2565b6108d2565b604051610356919061234f565b60405180910390f35b6103796004803603810190610374919061255a565b61097d565b005b610395600480360381019061039091906126c4565b610993565b005b6103b160048036038101906103ac91906123a2565b6109b8565b6040516103be919061234f565b60405180910390f35b6103e160048036038101906103dc9190612744565b6109ca565b6040516103ee91906122ac565b60405180910390f35b610411600480360381019061040c9190612820565b610a58565b005b61042d60048036038101906104289190612505565b610b5e565b005b5f61043982610be2565b9050919050565b60605f805461044e906128d5565b80601f016020809104026020016040519081016040528092919081815260200182805461047a906128d5565b80156104c55780601f1061049c576101008083540402835291602001916104c5565b820191905f5260205f20905b8154815290600101906020018083116104a857829003601f168201915b5050505050905090565b5f6104d982610c42565b506104e382610cc8565b9050919050565b6104fc82826104f7610d01565b610d08565b5050565b5f600880549050905090565b5f73ffffffffffffffffffffffffffffffffffffffff168273ffffffffffffffffffffffffffffffffffffffff160361057c575f6040517f64a0ae92000000000000000000000000000000000000000000000000000000008152600401610573919061240c565b60405180910390fd5b5f61058f838361058a610d01565b610d1a565b90508373ffffffffffffffffffffffffffffffffffffffff168173ffffffffffffffffffffffffffffffffffffffff1614610605578382826040517f64283d7b0000000000000000000000000000000000000000000000000000000081526004016105fc93929190612905565b60405180910390fd5b50505050565b5f61061583610751565b821061065a5782826040517fa57d13dc00000000000000000000000000000000000000000000000000000000815260040161065192919061293a565b60405180910390fd5b60065f8473ffffffffffffffffffffffffffffffffffffffff1673ffffffffffffffffffffffffffffffffffffffff1681526020019081526020015f205f8381526020019081526020015f2054905092915050565b6106c983838360405180602001604052805f815250610993565b505050565b5f6106d7610500565b821061071c575f826040517fa57d13dc00000000000000000000000000000000000000000000000000000000815260040161071392919061293a565b60405180910390fd5b600882815481106107305761072f612961565b5b905f5260205f2001549050919050565b5f61074a82610c42565b9050919050565b5f8073ffffffffffffffffffffffffffffffffffffffff168273ffffffffffffffffffffffffffffffffffffffff16036107c2575f6040517f89c62b640000000000000000000000000000000000000000000000000000000081526004016107b9919061240c565b60405180910390fd5b60035f8373ffffffffffffffffffffffffffffffffffffffff1673ffffffffffffffffffffffffffffffffffffffff1681526020019081526020015f20549050919050565b61080f610d2f565b6108185f610db6565b565b5f600b5f9054906101000a900473ffffffffffffffffffffffffffffffffffffffff16905090565b606060018054610851906128d5565b80601f016020809104026020016040519081016040528092919081815260200182805461087d906128d5565b80156108c85780601f1061089f576101008083540402835291602001916108c8565b820191905f5260205f20905b8154815290600101906020018083116108ab57829003601f168201915b5050505050905090565b60606108dd82610c42565b50600e5f8381526020019081526020015f2080546108fa906128d5565b80601f0160208091040260200160405190810160405280929190818152602001828054610926906128d5565b80156109715780601f1061094857610100808354040283529160200191610971565b820191905f5260205f20905b81548152906001019060200180831161095457829003601f168201915b50505050509050919050565b61098f610988610d01565b8383610e79565b5050565b61099e84848461050c565b6109b26109a9610d01565b85858585611052565b50505050565b60606109c3826111fe565b9050919050565b5f60055f8473ffffffffffffffffffffffffffffffffffffffff1673ffffffffffffffffffffffffffffffffffffffff1681526020019081526020015f205f8373ffffffffffffffffffffffffffffffffffffffff1673ffffffffffffffffffffffffffffffffffffffff1681526020019081526020015f205f9054906101000a900460ff16905092915050565b5f81604051602001610a6a91906129c8565b604051602081830303815290604052805190602001209050600d5f8281526020019081526020015f205f9054906101000a900460ff1615610ae257816040517fa9408696000000000000000000000000000000000000000000000000000000008152600401610ad9919061234f565b60405180910390fd5b5f600c5f815480929190610af590612a0b565b9190505590506001600d5f8481526020019081526020015f205f6101000a81548160ff02191690831515021790555082600e5f8381526020019081526020015f209081610b429190612bef565b50610b4d858261127a565b610b578185611297565b5050505050565b610b66610d2f565b5f73ffffffffffffffffffffffffffffffffffffffff168173ffffffffffffffffffffffffffffffffffffffff1603610bd6575f6040517f1e4fbdf7000000000000000000000000000000000000000000000000000000008152600401610bcd919061240c565b60405180910390fd5b610bdf81610db6565b50565b5f634906490660e01b7bffffffffffffffffffffffffffffffffffffffffffffffffffffffff1916827bffffffffffffffffffffffffffffffffffffffffffffffffffffffff19161480610c3b5750610c3a826112f1565b5b9050919050565b5f80610c4d8361136a565b90505f73ffffffffffffffffffffffffffffffffffffffff168173ffffffffffffffffffffffffffffffffffffffff1603610cbf57826040517f7e273289000000000000000000000000000000000000000000000000000000008152600401610cb6919061249c565b60405180910390fd5b80915050919050565b5f60045f8381526020019081526020015f205f9054906101000a900473ffffffffffffffffffffffffffffffffffffffff169050919050565b5f33905090565b610d1583838360016113a3565b505050565b5f610d26848484611562565b90509392505050565b610d37610d01565b73ffffffffffffffffffffffffffffffffffffffff16610d5561081a565b73ffffffffffffffffffffffffffffffffffffffff1614610db457610d78610d01565b6040517f118cdaa7000000000000000000000000000000000000000000000000000000008152600401610dab919061240c565b60405180910390fd5b565b5f600b5f9054906101000a900473ffffffffffffffffffffffffffffffffffffffff16905081600b5f6101000a81548173ffffffffffffffffffffffffffffffffffffffff021916908373ffffffffffffffffffffffffffffffffffffffff1602179055508173ffffffffffffffffffffffffffffffffffffffff168173ffffffffffffffffffffffffffffffffffffffff167f8be0079c531659141344cd1fd0a4f28419497f9722a3daafe3b4186f6b6457e060405160405180910390a35050565b5f73ffffffffffffffffffffffffffffffffffffffff168373ffffffffffffffffffffffffffffffffffffffff1603610ee9575f6040517fa9fbf51f000000000000000000000000000000000000000000000000000000008152600401610ee0919061240c565b60405180910390fd5b5f73ffffffffffffffffffffffffffffffffffffffff168273ffffffffffffffffffffffffffffffffffffffff1603610f5957816040517f5b08ba18000000000000000000000000000000000000000000000000000000008152600401610f50919061240c565b60405180910390fd5b8060055f8573ffffffffffffffffffffffffffffffffffffffff1673ffffffffffffffffffffffffffffffffffffffff1681526020019081526020015f205f8473ffffffffffffffffffffffffffffffffffffffff1673ffffffffffffffffffffffffffffffffffffffff1681526020019081526020015f205f6101000a81548160ff0219169083151502179055508173ffffffffffffffffffffffffffffffffffffffff168373ffffffffffffffffffffffffffffffffffffffff167f17307eab39ab6107e8899845ad3d59bd9653f200f220920489ca2b5937696c318360405161104591906122ac565b60405180910390a3505050565b5f8373ffffffffffffffffffffffffffffffffffffffff163b11156111f7578273ffffffffffffffffffffffffffffffffffffffff1663150b7a02868685856040518563ffffffff1660e01b81526004016110b09493929190612d10565b6020604051808303815f875af19250505080156110eb57506040513d601f19601f820116820180604052508101906110e89190612d6e565b60015b61116c573d805f8114611119576040519150601f19603f3d011682016040523d82523d5f602084013e61111e565b606091505b505f81510361116457836040517f64a0ae9200000000000000000000000000000000000000000000000000000000815260040161115b919061240c565b60405180910390fd5b805160208201fd5b63150b7a0260e01b7bffffffffffffffffffffffffffffffffffffffffffffffffffffffff1916817bffffffffffffffffffffffffffffffffffffffffffffffffffffffff1916146111f557836040517f64a0ae920000000000000000000000000000000000000000000000000000000081526004016111ec919061240c565b60405180910390fd5b505b5050505050565b606061120982610c42565b505f61121361167c565b90505f61121f84611692565b90505f825103611233578092505050611275565b5f8151111561126757818160405160200161124f929190612d99565b60405160208183030381529060405292505050611275565b61127084611733565b925050505b919050565b611293828260405180602001604052805f815250611799565b5050565b80600a5f8481526020019081526020015f2090816112b59190612bef565b507ff8e1a15aba9398e019f0b49df1a4fde98ee17ae345cb5f6b5e2c27f5033e8ce7826040516112e5919061249c565b60405180910390a15050565b5f7f780e9d63000000000000000000000000000000000000000000000000000000007bffffffffffffffffffffffffffffffffffffffffffffffffffffffff1916827bffffffffffffffffffffffffffffffffffffffffffffffffffffffff191614806113635750611362826117bc565b5b9050919050565b5f60025f8381526020019081526020015f205f9054906101000a900473ffffffffffffffffffffffffffffffffffffffff169050919050565b80806113db57505f73ffffffffffffffffffffffffffffffffffffffff168273ffffffffffffffffffffffffffffffffffffffff1614155b1561150d575f6113ea84610c42565b90505f73ffffffffffffffffffffffffffffffffffffffff168373ffffffffffffffffffffffffffffffffffffffff161415801561145457508273ffffffffffffffffffffffffffffffffffffffff168173ffffffffffffffffffffffffffffffffffffffff1614155b8015611467575061146581846109ca565b155b156114a957826040517fa9fbf51f0000000000000000000000000000000000000000000000000000000081526004016114a0919061240c565b60405180910390fd5b811561150b57838573ffffffffffffffffffffffffffffffffffffffff168273ffffffffffffffffffffffffffffffffffffffff167f8c5be1e5ebec7d5bd14f71427d1e84f3dd0314c0f7b2291e5b200ac8c7c3b92560405160405180910390a45b505b8360045f8581526020019081526020015f205f6101000a81548173ffffffffffffffffffffffffffffffffffffffff021916908373ffffffffffffffffffffffffffffffffffffffff16021790555050505050565b5f8061156f85858561189d565b90505f73ffffffffffffffffffffffffffffffffffffffff168173ffffffffffffffffffffffffffffffffffffffff16036115b2576115ad84611aa8565b6115f1565b8473ffffffffffffffffffffffffffffffffffffffff168173ffffffffffffffffffffffffffffffffffffffff16146115f0576115ef8185611aec565b5b5b5f73ffffffffffffffffffffffffffffffffffffffff168573ffffffffffffffffffffffffffffffffffffffff16036116325761162d84611bc3565b611671565b8473ffffffffffffffffffffffffffffffffffffffff168173ffffffffffffffffffffffffffffffffffffffff16146116705761166f8585611c83565b5b5b809150509392505050565b606060405180602001604052805f815250905090565b6060600a5f8381526020019081526020015f2080546116b0906128d5565b80601f01602080910402602001604051908101604052809291908181526020018280546116dc906128d5565b80156117275780601f106116fe57610100808354040283529160200191611727565b820191905f5260205f20905b81548152906001019060200180831161170a57829003601f168201915b50505050509050919050565b606061173e82610c42565b505f61174861167c565b90505f8151116117665760405180602001604052805f815250611791565b8061177084611d07565b604051602001611781929190612d99565b6040516020818303038152906040525b915050919050565b6117a38383611dd1565b6117b76117ae610d01565b5f858585611052565b505050565b5f7f80ac58cd000000000000000000000000000000000000000000000000000000007bffffffffffffffffffffffffffffffffffffffffffffffffffffffff1916827bffffffffffffffffffffffffffffffffffffffffffffffffffffffff1916148061188657507f5b5e139f000000000000000000000000000000000000000000000000000000007bffffffffffffffffffffffffffffffffffffffffffffffffffffffff1916827bffffffffffffffffffffffffffffffffffffffffffffffffffffffff1916145b80611896575061189582611ec4565b5b9050919050565b5f806118a88461136a565b90505f73ffffffffffffffffffffffffffffffffffffffff168373ffffffffffffffffffffffffffffffffffffffff16146118e9576118e8818486611f2d565b5b5f73ffffffffffffffffffffffffffffffffffffffff168173ffffffffffffffffffffffffffffffffffffffff1614611974576119285f855f806113a3565b600160035f8373ffffffffffffffffffffffffffffffffffffffff1673ffffffffffffffffffffffffffffffffffffffff1681526020019081526020015f205f82825403925050819055505b5f73ffffffffffffffffffffffffffffffffffffffff168573ffffffffffffffffffffffffffffffffffffffff16146119f357600160035f8773ffffffffffffffffffffffffffffffffffffffff1673ffffffffffffffffffffffffffffffffffffffff1681526020019081526020015f205f82825401925050819055505b8460025f8681526020019081526020015f205f6101000a81548173ffffffffffffffffffffffffffffffffffffffff021916908373ffffffffffffffffffffffffffffffffffffffff160217905550838573ffffffffffffffffffffffffffffffffffffffff168273ffffffffffffffffffffffffffffffffffffffff167fddf252ad1be2c89b69c2b068fc378daa952ba7f163c4a11628f55a4df523b3ef60405160405180910390a4809150509392505050565b60088054905060095f8381526020019081526020015f2081905550600881908060018154018082558091505060019003905f5260205f20015f909190919091505550565b5f611af683610751565b90505f60075f8481526020019081526020015f205490505f60065f8673ffffffffffffffffffffffffffffffffffffffff1673ffffffffffffffffffffffffffffffffffffffff1681526020019081526020015f209050828214611b95575f815f8581526020019081526020015f2054905080825f8581526020019081526020015f20819055508260075f8381526020019081526020015f2081905550505b60075f8581526020019081526020015f205f9055805f8481526020019081526020015f205f90555050505050565b5f6001600880549050611bd69190612dbc565b90505f60095f8481526020019081526020015f205490505f60088381548110611c0257611c01612961565b5b905f5260205f20015490508060088381548110611c2257611c21612961565b5b905f5260205f2001819055508160095f8381526020019081526020015f208190555060095f8581526020019081526020015f205f90556008805480611c6a57611c69612def565b5b600190038181905f5260205f20015f9055905550505050565b5f6001611c8f84610751565b611c999190612dbc565b90508160065f8573ffffffffffffffffffffffffffffffffffffffff1673ffffffffffffffffffffffffffffffffffffffff1681526020019081526020015f205f8381526020019081526020015f20819055508060075f8481526020019081526020015f2081905550505050565b60605f6001611d1584611ff0565b0190505f8167ffffffffffffffff811115611d3357611d326125a0565b5b6040519080825280601f01601f191660200182016040528015611d655781602001600182028036833780820191505090505b5090505f82602083010190505b600115611dc6578080600190039150507f3031323334353637383961626364656600000000000000000000000000000000600a86061a8153600a8581611dbb57611dba612e1c565b5b0494505f8503611d72575b819350505050919050565b5f73ffffffffffffffffffffffffffffffffffffffff168273ffffffffffffffffffffffffffffffffffffffff1603611e41575f6040517f64a0ae92000000000000000000000000000000000000000000000000000000008152600401611e38919061240c565b60405180910390fd5b5f611e4d83835f610d1a565b90505f73ffffffffffffffffffffffffffffffffffffffff168173ffffffffffffffffffffffffffffffffffffffff1614611ebf575f6040517f73c6ac6e000000000000000000000000000000000000000000000000000000008152600401611eb6919061240c565b60405180910390fd5b505050565b5f7f01ffc9a7000000000000000000000000000000000000000000000000000000007bffffffffffffffffffffffffffffffffffffffffffffffffffffffff1916827bffffffffffffffffffffffffffffffffffffffffffffffffffffffff1916149050919050565b611f38838383612141565b611feb575f73ffffffffffffffffffffffffffffffffffffffff168373ffffffffffffffffffffffffffffffffffffffff1603611fac57806040517f7e273289000000000000000000000000000000000000000000000000000000008152600401611fa3919061249c565b60405180910390fd5b81816040517f177e802f000000000000000000000000000000000000000000000000000000008152600401611fe292919061293a565b60405180910390fd5b505050565b5f805f90507a184f03e93ff9f4daa797ed6e38ed64bf6a1f010000000000000000831061204c577a184f03e93ff9f4daa797ed6e38ed64bf6a1f010000000000000000838161204257612041612e1c565b5b0492506040810190505b6d04ee2d6d415b85acef81000000008310612089576d04ee2d6d415b85acef8100000000838161207f5761207e612e1c565b5b0492506020810190505b662386f26fc1000083106120b857662386f26fc1000083816120ae576120ad612e1c565b5b0492506010810190505b6305f5e10083106120e1576305f5e10083816120d7576120d6612e1c565b5b0492506008810190505b61271083106121065761271083816120fc576120fb612e1c565b5b0492506004810190505b60648310612129576064838161211f5761211e612e1c565b5b0492506002810190505b600a8310612138576001810190505b80915050919050565b5f8073ffffffffffffffffffffffffffffffffffffffff168373ffffffffffffffffffffffffffffffffffffffff16141580156121f857508273ffffffffffffffffffffffffffffffffffffffff168473ffffffffffffffffffffffffffffffffffffffff1614806121b957506121b884846109ca565b5b806121f757508273ffffffffffffffffffffffffffffffffffffffff166121df83610cc8565b73ffffffffffffffffffffffffffffffffffffffff16145b5b90509392505050565b5f604051905090565b5f80fd5b5f80fd5b5f7fffffffff0000000000000000000000000000000000000000000000000000000082169050919050565b61224681612212565b8114612250575f80fd5b50565b5f813590506122618161223d565b92915050565b5f6020828403121561227c5761227b61220a565b5b5f61228984828501612253565b91505092915050565b5f8115159050919050565b6122a681612292565b82525050565b5f6020820190506122bf5f83018461229d565b92915050565b5f81519050919050565b5f82825260208201905092915050565b5f5b838110156122fc5780820151818401526020810190506122e1565b5f8484015250505050565b5f601f19601f8301169050919050565b5f612321826122c5565b61232b81856122cf565b935061233b8185602086016122df565b61234481612307565b840191505092915050565b5f6020820190508181035f8301526123678184612317565b905092915050565b5f819050919050565b6123818161236f565b811461238b575f80fd5b50565b5f8135905061239c81612378565b92915050565b5f602082840312156123b7576123b661220a565b5b5f6123c48482850161238e565b91505092915050565b5f73ffffffffffffffffffffffffffffffffffffffff82169050919050565b5f6123f6826123cd565b9050919050565b612406816123ec565b82525050565b5f60208201905061241f5f8301846123fd565b92915050565b61242e816123ec565b8114612438575f80fd5b50565b5f8135905061244981612425565b92915050565b5f80604083850312156124655761246461220a565b5b5f6124728582860161243b565b92505060206124838582860161238e565b9150509250929050565b6124968161236f565b82525050565b5f6020820190506124af5f83018461248d565b92915050565b5f805f606084860312156124cc576124cb61220a565b5b5f6124d98682870161243b565b93505060206124ea8682870161243b565b92505060406124fb8682870161238e565b9150509250925092565b5f6020828403121561251a5761251961220a565b5b5f6125278482850161243b565b91505092915050565b61253981612292565b8114612543575f80fd5b50565b5f8135905061255481612530565b92915050565b5f80604083850312156125705761256f61220a565b5b5f61257d8582860161243b565b925050602061258e85828601612546565b9150509250929050565b5f80fd5b5f80fd5b7f4e487b71000000000000000000000000000000000000000000000000000000005f52604160045260245ffd5b6125d682612307565b810181811067ffffffffffffffff821117156125f5576125f46125a0565b5b80604052505050565b5f612607612201565b905061261382826125cd565b919050565b5f67ffffffffffffffff821115612632576126316125a0565b5b61263b82612307565b9050602081019050919050565b828183375f83830152505050565b5f61266861266384612618565b6125fe565b9050828152602081018484840111156126845761268361259c565b5b61268f848285612648565b509392505050565b5f82601f8301126126ab576126aa612598565b5b81356126bb848260208601612656565b91505092915050565b5f805f80608085870312156126dc576126db61220a565b5b5f6126e98782880161243b565b94505060206126fa8782880161243b565b935050604061270b8782880161238e565b925050606085013567ffffffffffffffff81111561272c5761272b61220e565b5b61273887828801612697565b91505092959194509250565b5f806040838503121561275a5761275961220a565b5b5f6127678582860161243b565b92505060206127788582860161243b565b9150509250929050565b5f67ffffffffffffffff82111561279c5761279b6125a0565b5b6127a582612307565b9050602081019050919050565b5f6127c46127bf84612782565b6125fe565b9050828152602081018484840111156127e0576127df61259c565b5b6127eb848285612648565b509392505050565b5f82601f83011261280757612806612598565b5b81356128178482602086016127b2565b91505092915050565b5f805f606084860312156128375761283661220a565b5b5f6128448682870161243b565b935050602084013567ffffffffffffffff8111156128655761286461220e565b5b612871868287016127f3565b925050604084013567ffffffffffffffff8111156128925761289161220e565b5b61289e868287016127f3565b9150509250925092565b7f4e487b71000000000000000000000000000000000000000000000000000000005f52602260045260245ffd5b5f60028204905060018216806128ec57607f821691505b6020821081036128ff576128fe6128a8565b5b50919050565b5f6060820190506129185f8301866123fd565b612925602083018561248d565b61293260408301846123fd565b949350505050565b5f60408201905061294d5f8301856123fd565b61295a602083018461248d565b9392505050565b7f4e487b71000000000000000000000000000000000000000000000000000000005f52603260045260245ffd5b5f81905092915050565b5f6129a2826122c5565b6129ac818561298e565b93506129bc8185602086016122df565b80840191505092915050565b5f6129d38284612998565b915081905092915050565b7f4e487b71000000000000000000000000000000000000000000000000000000005f52601160045260245ffd5b5f612a158261236f565b91507fffffffffffffffffffffffffffffffffffffffffffffffffffffffffffffffff8203612a4757612a466129de565b5b600182019050919050565b5f819050815f5260205f209050919050565b5f6020601f8301049050919050565b5f82821b905092915050565b5f60088302612aae7fffffffffffffffffffffffffffffffffffffffffffffffffffffffffffffffff82612a73565b612ab88683612a73565b95508019841693508086168417925050509392505050565b5f819050919050565b5f612af3612aee612ae98461236f565b612ad0565b61236f565b9050919050565b5f819050919050565b612b0c83612ad9565b612b20612b1882612afa565b848454612a7f565b825550505050565b5f90565b612b34612b28565b612b3f818484612b03565b505050565b5b81811015612b6257612b575f82612b2c565b600181019050612b45565b5050565b601f821115612ba757612b7881612a52565b612b8184612a64565b81016020851015612b90578190505b612ba4612b9c85612a64565b830182612b44565b50505b505050565b5f82821c905092915050565b5f612bc75f1984600802612bac565b1980831691505092915050565b5f612bdf8383612bb8565b9150826002028217905092915050565b612bf8826122c5565b67ffffffffffffffff811115612c1157612c106125a0565b5b612c1b82546128d5565b612c26828285612b66565b5f60209050601f831160018114612c57575f8415612c45578287015190505b612c4f8582612bd4565b865550612cb6565b601f198416612c6586612a52565b5f5b82811015612c8c57848901518255600182019150602085019450602081019050612c67565b86831015612ca95784890151612ca5601f891682612bb8565b8355505b6001600288020188555050505b505050505050565b5f81519050919050565b5f82825260208201905092915050565b5f612ce282612cbe565b612cec8185612cc8565b9350612cfc8185602086016122df565b612d0581612307565b840191505092915050565b5f608082019050612d235f8301876123fd565b612d3060208301866123fd565b612d3d604083018561248d565b8181036060830152612d4f8184612cd8565b905095945050505050565b5f81519050612d688161223d565b92915050565b5f60208284031215612d8357612d8261220a565b5b5f612d9084828501612d5a565b91505092915050565b5f612da48285612998565b9150612db08284612998565b91508190509392505050565b5f612dc68261236f565b9150612dd18361236f565b9250828203905081811115612de957612de86129de565b5b92915050565b7f4e487b71000000000000000000000000000000000000000000000000000000005f52603160045260245ffd5b7f4e487b71000000000000000000000000000000000000000000000000000000005f52601260045260245ffdfea26469706673582212204bd251626b8cae9093af43d6bded40dba0821a5d487c0c939ffa886824d7257664736f6c63430008180033",
  "linkReferences": {},
  "deployedLinkReferences": {}
}